{
  "_format": "hh-sol-artifact-1",
  "contractName": "RWATokenFactory",
  "sourceName": "contracts/RWAFactory.sol",
  "abi": [
    {
      "inputs": [
        {
          "internalType": "address",
          "name": "kycRegistry_",
          "type": "address"
        }
      ],
      "stateMutability": "nonpayable",
      "type": "constructor"
    },
    {
      "anonymous": false,
      "inputs": [
        {
          "indexed": true,
          "internalType": "address",
          "name": "tokenAddress",
          "type": "address"
        },
        {
          "indexed": false,
          "internalType": "string",
          "name": "name",
          "type": "string"
        },
        {
          "indexed": false,
          "internalType": "string",
          "name": "symbol",
          "type": "string"
        },
        {
          "indexed": false,
          "internalType": "string",
          "name": "metaData",
          "type": "string"
        }
      ],
      "name": "TokenCreated",
      "type": "event"
    },
    {
      "inputs": [
        {
          "internalType": "uint256",
          "name": "",
          "type": "uint256"
        }
      ],
      "name": "allTokens",
      "outputs": [
        {
          "internalType": "address",
          "name": "",
          "type": "address"
        }
      ],
      "stateMutability": "view",
      "type": "function"
    },
    {
      "inputs": [
        {
          "internalType": "string",
          "name": "name_",
          "type": "string"
        },
        {
          "internalType": "string",
          "name": "symbol_",
          "type": "string"
        },
        {
          "internalType": "string",
          "name": "metaData_",
          "type": "string"
        },
        {
          "internalType": "uint256",
          "name": "maxShares_",
          "type": "uint256"
        }
      ],
      "name": "createRwaToken",
      "outputs": [
        {
          "internalType": "address",
          "name": "",
          "type": "address"
        }
      ],
      "stateMutability": "nonpayable",
      "type": "function"
    },
    {
      "inputs": [],
      "name": "getAllTokens",
      "outputs": [
        {
          "internalType": "address[]",
          "name": "",
          "type": "address[]"
        }
      ],
      "stateMutability": "view",
      "type": "function"
    },
    {
      "inputs": [],
      "name": "kycRegistry",
      "outputs": [
        {
          "internalType": "contract IKYCRegistry",
          "name": "",
          "type": "address"
        }
      ],
      "stateMutability": "view",
      "type": "function"
    }
  ],
  "bytecode": "0x60a060405234801561001057600080fd5b506040516145ac3803806145ac8339818101604052810190610032919061013e565b600073ffffffffffffffffffffffffffffffffffffffff168173ffffffffffffffffffffffffffffffffffffffff16036100a1576040517f08c379a0000000000000000000000000000000000000000000000000000000008152600401610098906101c8565b60405180910390fd5b8073ffffffffffffffffffffffffffffffffffffffff1660808173ffffffffffffffffffffffffffffffffffffffff1681525050506101e8565b600080fd5b600073ffffffffffffffffffffffffffffffffffffffff82169050919050565b600061010b826100e0565b9050919050565b61011b81610100565b811461012657600080fd5b50565b60008151905061013881610112565b92915050565b600060208284031215610154576101536100db565b5b600061016284828501610129565b91505092915050565b600082825260208201905092915050565b7f525741546f6b656e466163746f72793a206b79632061646472207a65726f0000600082015250565b60006101b2601e8361016b565b91506101bd8261017c565b602082019050919050565b600060208201905081810360008301526101e1816101a5565b9050919050565b60805161439b6102116000396000818161017d015281816101e301526102c0015261439b6000f3fe608060405234801561001057600080fd5b506004361061004c5760003560e01c80632a5c792a146100515780634b155b971461006f578063634282af1461008d57806395259106146100bd575b600080fd5b6100596100ed565b60405161006691906104db565b60405180910390f35b61007761017b565b604051610084919061055c565b60405180910390f35b6100a760048036038101906100a291906105c1565b61019f565b6040516100b491906105fd565b60405180910390f35b6100d760048036038101906100d2919061075e565b6101de565b6040516100e491906105fd565b60405180910390f35b6060600080548060200260200160405190810160405280929190818152602001828054801561017157602002820191906000526020600020905b8160009054906101000a900473ffffffffffffffffffffffffffffffffffffffff1673ffffffffffffffffffffffffffffffffffffffff1681526020019060010190808311610127575b5050505050905090565b7f000000000000000000000000000000000000000000000000000000000000000081565b600081815481106101af57600080fd5b906000526020600020016000915054906101000a900473ffffffffffffffffffffffffffffffffffffffff1681565b6000337f000000000000000000000000000000000000000000000000000000000000000073ffffffffffffffffffffffffffffffffffffffff1663ace417e0826040518263ffffffff1660e01b815260040161023a91906105fd565b602060405180830381865afa158015610257573d6000803e3d6000fd5b505050506040513d601f19601f8201168201806040525081019061027b9190610851565b6102ba576040517f08c379a00000000000000000000000000000000000000000000000000000000081526004016102b190610901565b60405180910390fd5b600086867f00000000000000000000000000000000000000000000000000000000000000008733886040516102ee906103de565b6102fd9695949392919061099e565b604051809103906000f080158015610319573d6000803e3d6000fd5b5090506000819080600181540180825580915050600190039060005260206000200160009091909190916101000a81548173ffffffffffffffffffffffffffffffffffffffff021916908373ffffffffffffffffffffffffffffffffffffffff1602179055508073ffffffffffffffffffffffffffffffffffffffff167f10d72033834a2a8a099dfa90492346be3414c081b6e5155dbbc2093cfb0dbf098888886040516103c993929190610a14565b60405180910390a28092505050949350505050565b61390580610a6183390190565b600081519050919050565b600082825260208201905092915050565b6000819050602082019050919050565b600073ffffffffffffffffffffffffffffffffffffffff82169050919050565b600061044282610417565b9050919050565b61045281610437565b82525050565b60006104648383610449565b60208301905092915050565b6000602082019050919050565b6000610488826103eb565b61049281856103f6565b935061049d83610407565b8060005b838110156104ce5781516104b58882610458565b97506104c083610470565b9250506001810190506104a1565b5085935050505092915050565b600060208201905081810360008301526104f5818461047d565b905092915050565b6000819050919050565b600061052261051d61051884610417565b6104fd565b610417565b9050919050565b600061053482610507565b9050919050565b600061054682610529565b9050919050565b6105568161053b565b82525050565b6000602082019050610571600083018461054d565b92915050565b6000604051905090565b600080fd5b600080fd5b6000819050919050565b61059e8161058b565b81146105a957600080fd5b50565b6000813590506105bb81610595565b92915050565b6000602082840312156105d7576105d6610581565b5b60006105e5848285016105ac565b91505092915050565b6105f781610437565b82525050565b600060208201905061061260008301846105ee565b92915050565b600080fd5b600080fd5b6000601f19601f8301169050919050565b7f4e487b7100000000000000000000000000000000000000000000000000000000600052604160045260246000fd5b61066b82610622565b810181811067ffffffffffffffff8211171561068a57610689610633565b5b80604052505050565b600061069d610577565b90506106a98282610662565b919050565b600067ffffffffffffffff8211156106c9576106c8610633565b5b6106d282610622565b9050602081019050919050565b82818337600083830152505050565b60006107016106fc846106ae565b610693565b90508281526020810184848401111561071d5761071c61061d565b5b6107288482856106df565b509392505050565b600082601f83011261074557610744610618565b5b81356107558482602086016106ee565b91505092915050565b6000806000806080858703121561077857610777610581565b5b600085013567ffffffffffffffff81111561079657610795610586565b5b6107a287828801610730565b945050602085013567ffffffffffffffff8111156107c3576107c2610586565b5b6107cf87828801610730565b935050604085013567ffffffffffffffff8111156107f0576107ef610586565b5b6107fc87828801610730565b925050606061080d878288016105ac565b91505092959194509250565b60008115159050919050565b61082e81610819565b811461083957600080fd5b50565b60008151905061084b81610825565b92915050565b60006020828403121561086757610866610581565b5b60006108758482850161083c565b91505092915050565b600082825260208201905092915050565b7f525741546f6b656e466163746f72793a2075736572206e6f742076657269666960008201527f6564000000000000000000000000000000000000000000000000000000000000602082015250565b60006108eb60228361087e565b91506108f68261088f565b604082019050919050565b6000602082019050818103600083015261091a816108de565b9050919050565b600081519050919050565b60005b8381101561094a57808201518184015260208101905061092f565b60008484015250505050565b600061096182610921565b61096b818561087e565b935061097b81856020860161092c565b61098481610622565b840191505092915050565b6109988161058b565b82525050565b600060c08201905081810360008301526109b88189610956565b905081810360208301526109cc8188610956565b90506109db604083018761054d565b81810360608301526109ed8186610956565b90506109fc60808301856105ee565b610a0960a083018461098f565b979650505050505050565b60006060820190508181036000830152610a2e8186610956565b90508181036020830152610a428185610956565b90508181036040830152610a568184610956565b905094935050505056fe60c060405234801561001057600080fd5b5060405161390538038061390583398181016040528101906100329190610635565b85858160039081610043919061092d565b508060049081610053919061092d565b505050600073ffffffffffffffffffffffffffffffffffffffff168273ffffffffffffffffffffffffffffffffffffffff16036100c5576040517f08c379a00000000000000000000000000000000000000000000000000000000081526004016100bc90610a5c565b60405180910390fd5b600073ffffffffffffffffffffffffffffffffffffffff168473ffffffffffffffffffffffffffffffffffffffff1603610134576040517f08c379a000000000000000000000000000000000000000000000000000000000815260040161012b90610ac8565b60405180910390fd5b60008111610177576040517f08c379a000000000000000000000000000000000000000000000000000000000815260040161016e90610b34565b60405180910390fd5b8373ffffffffffffffffffffffffffffffffffffffff1660a08173ffffffffffffffffffffffffffffffffffffffff168152505082600790816101ba919061092d565b50806080818152505060006006819055506101de6000801b8361027d60201b60201c565b5061020f7f9f2df0fed2c77648de5860a4cc508cd0818c85b8b8a1ab4ceeef8d981c8956a68361027d60201b60201c565b506102407f3c11d16cbaffd01df69ce1c404f6340ee057498f5f00246190ea54220576a8488361027d60201b60201c565b506102717f90601cb45097851a246a5f8a72fbb27b3ef393b2a92d8fdd7aa24b1be6b2ed3b8361027d60201b60201c565b50505050505050610b54565b600061028f838361037b60201b60201c565b6103705760016005600085815260200190815260200160002060000160008473ffffffffffffffffffffffffffffffffffffffff1673ffffffffffffffffffffffffffffffffffffffff16815260200190815260200160002060006101000a81548160ff02191690831515021790555061030d6103e660201b60201c565b73ffffffffffffffffffffffffffffffffffffffff168273ffffffffffffffffffffffffffffffffffffffff16847f2f8788117e7eff1d82e926ec794901d17c78024a50270940304540a733656f0d60405160405180910390a460019050610375565b600090505b92915050565b60006005600084815260200190815260200160002060000160008373ffffffffffffffffffffffffffffffffffffffff1673ffffffffffffffffffffffffffffffffffffffff16815260200190815260200160002060009054906101000a900460ff16905092915050565b600033905090565b6000604051905090565b600080fd5b600080fd5b600080fd5b600080fd5b6000601f19601f8301169050919050565b7f4e487b7100000000000000000000000000000000000000000000000000000000600052604160045260246000fd5b6104558261040c565b810181811067ffffffffffffffff821117156104745761047361041d565b5b80604052505050565b60006104876103ee565b9050610493828261044c565b919050565b600067ffffffffffffffff8211156104b3576104b261041d565b5b6104bc8261040c565b9050602081019050919050565b60005b838110156104e75780820151818401526020810190506104cc565b60008484015250505050565b600061050661050184610498565b61047d565b90508281526020810184848401111561052257610521610407565b5b61052d8482856104c9565b509392505050565b600082601f83011261054a57610549610402565b5b815161055a8482602086016104f3565b91505092915050565b600073ffffffffffffffffffffffffffffffffffffffff82169050919050565b600061058e82610563565b9050919050565b60006105a082610583565b9050919050565b6105b081610595565b81146105bb57600080fd5b50565b6000815190506105cd816105a7565b92915050565b6105dc81610583565b81146105e757600080fd5b50565b6000815190506105f9816105d3565b92915050565b6000819050919050565b610612816105ff565b811461061d57600080fd5b50565b60008151905061062f81610609565b92915050565b60008060008060008060c08789031215610652576106516103f8565b5b600087015167ffffffffffffffff8111156106705761066f6103fd565b5b61067c89828a01610535565b965050602087015167ffffffffffffffff81111561069d5761069c6103fd565b5b6106a989828a01610535565b95505060406106ba89828a016105be565b945050606087015167ffffffffffffffff8111156106db576106da6103fd565b5b6106e789828a01610535565b93505060806106f889828a016105ea565b92505060a061070989828a01610620565b9150509295509295509295565b600081519050919050565b7f4e487b7100000000000000000000000000000000000000000000000000000000600052602260045260246000fd5b6000600282049050600182168061076857607f821691505b60208210810361077b5761077a610721565b5b50919050565b60008190508160005260206000209050919050565b60006020601f8301049050919050565b600082821b905092915050565b6000600883026107e37fffffffffffffffffffffffffffffffffffffffffffffffffffffffffffffffff826107a6565b6107ed86836107a6565b95508019841693508086168417925050509392505050565b6000819050919050565b600061082a610825610820846105ff565b610805565b6105ff565b9050919050565b6000819050919050565b6108448361080f565b61085861085082610831565b8484546107b3565b825550505050565b600090565b61086d610860565b61087881848461083b565b505050565b5b8181101561089c57610891600082610865565b60018101905061087e565b5050565b601f8211156108e1576108b281610781565b6108bb84610796565b810160208510156108ca578190505b6108de6108d685610796565b83018261087d565b50505b505050565b600082821c905092915050565b6000610904600019846008026108e6565b1980831691505092915050565b600061091d83836108f3565b9150826002028217905092915050565b61093682610716565b67ffffffffffffffff81111561094f5761094e61041d565b5b6109598254610750565b6109648282856108a0565b600060209050601f8311600181146109975760008415610985578287015190505b61098f8582610911565b8655506109f7565b601f1984166109a586610781565b60005b828110156109cd578489015182556001820191506020850194506020810190506109a8565b868310156109ea57848901516109e6601f8916826108f3565b8355505b6001600288020188555050505b505050505050565b600082825260208201905092915050565b7f525741546f6b656e3a206f776e6572207a65726f000000000000000000000000600082015250565b6000610a466014836109ff565b9150610a5182610a10565b602082019050919050565b60006020820190508181036000830152610a7581610a39565b9050919050565b7f525741546f6b656e3a206b7963207a65726f0000000000000000000000000000600082015250565b6000610ab26012836109ff565b9150610abd82610a7c565b602082019050919050565b60006020820190508181036000830152610ae181610aa5565b9050919050565b7f525741546f6b656e3a206d6178536861726573203d3d20300000000000000000600082015250565b6000610b1e6018836109ff565b9150610b2982610ae8565b602082019050919050565b60006020820190508181036000830152610b4d81610b11565b9050919050565b60805160a051612d46610bbf600039600081816106cd015281816107a60152818161087f0152818161095901528181610c1101528181610d60015281816111360152818161120f015281816112e801526113c2015260008181610ba101526114b10152612d466000f3fe608060405234801561001057600080fd5b50600436106101a95760003560e01c8063580ec4d7116100f9578063a217fddf11610097578063d539139311610071578063d5391393146104d2578063d547741f146104f0578063db1c13d81461050c578063dd62ed3e1461052a576101a9565b8063a217fddf14610466578063a9059cbb14610484578063c65b61ca146104b4576101a9565b80637a5b4f59116100d35780637a5b4f59146103de578063918b5be1146103fc57806391d148541461041857806395d89b4114610448576101a9565b8063580ec4d71461037657806370a082311461039257806379cc6790146103c2576101a9565b8063248a9ca311610166578063313ce56711610140578063313ce5671461030257806336568abe1461032057806340c10f191461033c5780634b155b9714610358576101a9565b8063248a9ca314610298578063282c51f3146102c85780632f2ff15d146102e6576101a9565b806301ffc9a7146101ae57806306fdde03146101de578063095ea7b3146101fc57806318160ddd1461022c5780632208830d1461024a57806323b872dd14610268575b600080fd5b6101c860048036038101906101c39190611fd9565b61055a565b6040516101d59190612021565b60405180910390f35b6101e66105d4565b6040516101f391906120cc565b60405180910390f35b61021660048036038101906102119190612182565b610666565b6040516102239190612021565b60405180910390f35b610234610689565b60405161024191906121d1565b60405180910390f35b610252610693565b60405161025f91906121d1565b60405180910390f35b610282600480360381019061027d91906121ec565b610699565b60405161028f9190612021565b60405180910390f35b6102b260048036038101906102ad9190612275565b610a48565b6040516102bf91906122b1565b60405180910390f35b6102d0610a68565b6040516102dd91906122b1565b60405180910390f35b61030060048036038101906102fb91906122cc565b610a8c565b005b61030a610aae565b6040516103179190612328565b60405180910390f35b61033a600480360381019061033591906122cc565b610ab7565b005b61035660048036038101906103519190612182565b610b32565b005b610360610d5e565b60405161036d91906123a2565b60405180910390f35b610390600480360381019061038b9190612182565b610d82565b005b6103ac60048036038101906103a791906123bd565b610deb565b6040516103b991906121d1565b60405180910390f35b6103dc60048036038101906103d79190612182565b610e33565b005b6103e6610f0d565b6040516103f391906120cc565b60405180910390f35b6104166004803603810190610411919061251f565b610f9f565b005b610432600480360381019061042d91906122cc565b610ff7565b60405161043f9190612021565b60405180910390f35b610450611062565b60405161045d91906120cc565b60405180910390f35b61046e6110f4565b60405161047b91906122b1565b60405180910390f35b61049e60048036038101906104999190612182565b6110fb565b6040516104ab9190612021565b60405180910390f35b6104bc6114af565b6040516104c991906121d1565b60405180910390f35b6104da6114d3565b6040516104e791906122b1565b60405180910390f35b61050a600480360381019061050591906122cc565b6114f7565b005b610514611519565b60405161052191906122b1565b60405180910390f35b610544600480360381019061053f9190612568565b61153d565b60405161055191906121d1565b60405180910390f35b60007f7965db0b000000000000000000000000000000000000000000000000000000007bffffffffffffffffffffffffffffffffffffffffffffffffffffffff1916827bffffffffffffffffffffffffffffffffffffffffffffffffffffffff191614806105cd57506105cc826115c4565b5b9050919050565b6060600380546105e3906125d7565b80601f016020809104026020016040519081016040528092919081815260200182805461060f906125d7565b801561065c5780601f106106315761010080835404028352916020019161065c565b820191906000526020600020905b81548152906001019060200180831161063f57829003601f168201915b5050505050905090565b60008061067161162e565b905061067e818585611636565b600191505092915050565b6000600254905090565b60065481565b600083836106c77f90601cb45097851a246a5f8a72fbb27b3ef393b2a92d8fdd7aa24b1be6b2ed3b33610ff7565b610a32577f000000000000000000000000000000000000000000000000000000000000000073ffffffffffffffffffffffffffffffffffffffff1663ace417e0836040518263ffffffff1660e01b81526004016107249190612617565b602060405180830381865afa158015610741573d6000803e3d6000fd5b505050506040513d601f19601f82011682018060405250810190610765919061265e565b6107a4576040517f08c379a000000000000000000000000000000000000000000000000000000000815260040161079b906126d7565b60405180910390fd5b7f000000000000000000000000000000000000000000000000000000000000000073ffffffffffffffffffffffffffffffffffffffff1663ace417e0826040518263ffffffff1660e01b81526004016107fd9190612617565b602060405180830381865afa15801561081a573d6000803e3d6000fd5b505050506040513d601f19601f8201168201806040525081019061083e919061265e565b61087d576040517f08c379a000000000000000000000000000000000000000000000000000000000815260040161087490612743565b60405180910390fd5b7f000000000000000000000000000000000000000000000000000000000000000073ffffffffffffffffffffffffffffffffffffffff1663b4a77b0e836040518263ffffffff1660e01b81526004016108d69190612617565b602060405180830381865afa1580156108f3573d6000803e3d6000fd5b505050506040513d601f19601f82011682018060405250810190610917919061265e565b15610957576040517f08c379a000000000000000000000000000000000000000000000000000000000815260040161094e906127af565b60405180910390fd5b7f000000000000000000000000000000000000000000000000000000000000000073ffffffffffffffffffffffffffffffffffffffff1663b4a77b0e826040518263ffffffff1660e01b81526004016109b09190612617565b602060405180830381865afa1580156109cd573d6000803e3d6000fd5b505050506040513d601f19601f820116820180604052508101906109f1919061265e565b15610a31576040517f08c379a0000000000000000000000000000000000000000000000000000000008152600401610a289061281b565b60405180910390fd5b5b610a3d868686611648565b925050509392505050565b600060056000838152602001908152602001600020600101549050919050565b7f3c11d16cbaffd01df69ce1c404f6340ee057498f5f00246190ea54220576a84881565b610a9582610a48565b610a9e81611677565b610aa8838361168b565b50505050565b60006012905090565b610abf61162e565b73ffffffffffffffffffffffffffffffffffffffff168173ffffffffffffffffffffffffffffffffffffffff1614610b23576040517f6697b23200000000000000000000000000000000000000000000000000000000815260040160405180910390fd5b610b2d828261177d565b505050565b7f9f2df0fed2c77648de5860a4cc508cd0818c85b8b8a1ab4ceeef8d981c8956a6610b5c81611677565b60008211610b9f576040517f08c379a0000000000000000000000000000000000000000000000000000000008152600401610b9690612887565b60405180910390fd5b7f000000000000000000000000000000000000000000000000000000000000000082600654610bce91906128d6565b1115610c0f576040517f08c379a0000000000000000000000000000000000000000000000000000000008152600401610c0690612956565b60405180910390fd5b7f000000000000000000000000000000000000000000000000000000000000000073ffffffffffffffffffffffffffffffffffffffff1663ace417e0846040518263ffffffff1660e01b8152600401610c689190612617565b602060405180830381865afa158015610c85573d6000803e3d6000fd5b505050506040513d601f19601f82011682018060405250810190610ca9919061265e565b610ce8576040517f08c379a0000000000000000000000000000000000000000000000000000000008152600401610cdf90612743565b60405180910390fd5b8160066000828254610cfa91906128d6565b92505081905550610d0b8383611870565b8273ffffffffffffffffffffffffffffffffffffffff167f6332ddaa8a69b5eb2524ec7ca317b7c2b01ecf678d584031415f81270977b8fc83604051610d5191906121d1565b60405180910390a2505050565b7f000000000000000000000000000000000000000000000000000000000000000081565b7f3c11d16cbaffd01df69ce1c404f6340ee057498f5f00246190ea54220576a848610dac81611677565b610db683836118f2565b8160065410610ddd578160066000828254610dd19190612976565b92505081905550610de6565b60006006819055505b505050565b60008060008373ffffffffffffffffffffffffffffffffffffffff1673ffffffffffffffffffffffffffffffffffffffff168152602001908152602001600020549050919050565b8173ffffffffffffffffffffffffffffffffffffffff163373ffffffffffffffffffffffffffffffffffffffff1614610ecf576000610e72833361153d565b905081811015610eb7576040517f08c379a0000000000000000000000000000000000000000000000000000000008152600401610eae90612a1c565b60405180910390fd5b610ecd83338484610ec89190612976565b611636565b505b610ed982826118f2565b8060065410610f00578060066000828254610ef49190612976565b92505081905550610f09565b60006006819055505b5050565b606060078054610f1c906125d7565b80601f0160208091040260200160405190810160405280929190818152602001828054610f48906125d7565b8015610f955780601f10610f6a57610100808354040283529160200191610f95565b820191906000526020600020905b815481529060010190602001808311610f7857829003601f168201915b5050505050905090565b6000801b610fac81611677565b8160079081610fbb9190612bde565b507f1c306e70c05992619e2128ad1ef88df75f36c9476282e59f51401b2abaa42e4e82604051610feb91906120cc565b60405180910390a15050565b60006005600084815260200190815260200160002060000160008373ffffffffffffffffffffffffffffffffffffffff1673ffffffffffffffffffffffffffffffffffffffff16815260200190815260200160002060009054906101000a900460ff16905092915050565b606060048054611071906125d7565b80601f016020809104026020016040519081016040528092919081815260200182805461109d906125d7565b80156110ea5780601f106110bf576101008083540402835291602001916110ea565b820191906000526020600020905b8154815290600101906020018083116110cd57829003601f168201915b5050505050905090565b6000801b81565b600061110561162e565b836111307f90601cb45097851a246a5f8a72fbb27b3ef393b2a92d8fdd7aa24b1be6b2ed3b33610ff7565b61149b577f000000000000000000000000000000000000000000000000000000000000000073ffffffffffffffffffffffffffffffffffffffff1663ace417e0836040518263ffffffff1660e01b815260040161118d9190612617565b602060405180830381865afa1580156111aa573d6000803e3d6000fd5b505050506040513d601f19601f820116820180604052508101906111ce919061265e565b61120d576040517f08c379a0000000000000000000000000000000000000000000000000000000008152600401611204906126d7565b60405180910390fd5b7f000000000000000000000000000000000000000000000000000000000000000073ffffffffffffffffffffffffffffffffffffffff1663ace417e0826040518263ffffffff1660e01b81526004016112669190612617565b602060405180830381865afa158015611283573d6000803e3d6000fd5b505050506040513d601f19601f820116820180604052508101906112a7919061265e565b6112e6576040517f08c379a00000000000000000000000000000000000000000000000000000000081526004016112dd90612743565b60405180910390fd5b7f000000000000000000000000000000000000000000000000000000000000000073ffffffffffffffffffffffffffffffffffffffff1663b4a77b0e836040518263ffffffff1660e01b815260040161133f9190612617565b602060405180830381865afa15801561135c573d6000803e3d6000fd5b505050506040513d601f19601f82011682018060405250810190611380919061265e565b156113c0576040517f08c379a00000000000000000000000000000000000000000000000000000000081526004016113b7906127af565b60405180910390fd5b7f000000000000000000000000000000000000000000000000000000000000000073ffffffffffffffffffffffffffffffffffffffff1663b4a77b0e826040518263ffffffff1660e01b81526004016114199190612617565b602060405180830381865afa158015611436573d6000803e3d6000fd5b505050506040513d601f19601f8201168201806040525081019061145a919061265e565b1561149a576040517f08c379a00000000000000000000000000000000000000000000000000000000081526004016114919061281b565b60405180910390fd5b5b6114a58585611974565b9250505092915050565b7f000000000000000000000000000000000000000000000000000000000000000081565b7f9f2df0fed2c77648de5860a4cc508cd0818c85b8b8a1ab4ceeef8d981c8956a681565b61150082610a48565b61150981611677565b611513838361177d565b50505050565b7f90601cb45097851a246a5f8a72fbb27b3ef393b2a92d8fdd7aa24b1be6b2ed3b81565b6000600160008473ffffffffffffffffffffffffffffffffffffffff1673ffffffffffffffffffffffffffffffffffffffff16815260200190815260200160002060008373ffffffffffffffffffffffffffffffffffffffff1673ffffffffffffffffffffffffffffffffffffffff16815260200190815260200160002054905092915050565b60007f01ffc9a7000000000000000000000000000000000000000000000000000000007bffffffffffffffffffffffffffffffffffffffffffffffffffffffff1916827bffffffffffffffffffffffffffffffffffffffffffffffffffffffff1916149050919050565b600033905090565b6116438383836001611997565b505050565b60008061165361162e565b9050611660858285611b6e565b61166b858585611c03565b60019150509392505050565b6116888161168361162e565b611cf7565b50565b60006116978383610ff7565b6117725760016005600085815260200190815260200160002060000160008473ffffffffffffffffffffffffffffffffffffffff1673ffffffffffffffffffffffffffffffffffffffff16815260200190815260200160002060006101000a81548160ff02191690831515021790555061170f61162e565b73ffffffffffffffffffffffffffffffffffffffff168273ffffffffffffffffffffffffffffffffffffffff16847f2f8788117e7eff1d82e926ec794901d17c78024a50270940304540a733656f0d60405160405180910390a460019050611777565b600090505b92915050565b60006117898383610ff7565b156118655760006005600085815260200190815260200160002060000160008473ffffffffffffffffffffffffffffffffffffffff1673ffffffffffffffffffffffffffffffffffffffff16815260200190815260200160002060006101000a81548160ff02191690831515021790555061180261162e565b73ffffffffffffffffffffffffffffffffffffffff168273ffffffffffffffffffffffffffffffffffffffff16847ff6391f5c32d9c69d2a47ea670b442974b53935d1edc7fd64eb21e047a839171b60405160405180910390a46001905061186a565b600090505b92915050565b600073ffffffffffffffffffffffffffffffffffffffff168273ffffffffffffffffffffffffffffffffffffffff16036118e25760006040517fec442f050000000000000000000000000000000000000000000000000000000081526004016118d99190612617565b60405180910390fd5b6118ee60008383611d48565b5050565b600073ffffffffffffffffffffffffffffffffffffffff168273ffffffffffffffffffffffffffffffffffffffff16036119645760006040517f96c6fd1e00000000000000000000000000000000000000000000000000000000815260040161195b9190612617565b60405180910390fd5b61197082600083611d48565b5050565b60008061197f61162e565b905061198c818585611c03565b600191505092915050565b600073ffffffffffffffffffffffffffffffffffffffff168473ffffffffffffffffffffffffffffffffffffffff1603611a095760006040517fe602df05000000000000000000000000000000000000000000000000000000008152600401611a009190612617565b60405180910390fd5b600073ffffffffffffffffffffffffffffffffffffffff168373ffffffffffffffffffffffffffffffffffffffff1603611a7b5760006040517f94280d62000000000000000000000000000000000000000000000000000000008152600401611a729190612617565b60405180910390fd5b81600160008673ffffffffffffffffffffffffffffffffffffffff1673ffffffffffffffffffffffffffffffffffffffff16815260200190815260200160002060008573ffffffffffffffffffffffffffffffffffffffff1673ffffffffffffffffffffffffffffffffffffffff168152602001908152602001600020819055508015611b68578273ffffffffffffffffffffffffffffffffffffffff168473ffffffffffffffffffffffffffffffffffffffff167f8c5be1e5ebec7d5bd14f71427d1e84f3dd0314c0f7b2291e5b200ac8c7c3b92584604051611b5f91906121d1565b60405180910390a35b50505050565b6000611b7a848461153d565b90507fffffffffffffffffffffffffffffffffffffffffffffffffffffffffffffffff811015611bfd5781811015611bed578281836040517ffb8f41b2000000000000000000000000000000000000000000000000000000008152600401611be493929190612cb0565b60405180910390fd5b611bfc84848484036000611997565b5b50505050565b600073ffffffffffffffffffffffffffffffffffffffff168373ffffffffffffffffffffffffffffffffffffffff1603611c755760006040517f96c6fd1e000000000000000000000000000000000000000000000000000000008152600401611c6c9190612617565b60405180910390fd5b600073ffffffffffffffffffffffffffffffffffffffff168273ffffffffffffffffffffffffffffffffffffffff1603611ce75760006040517fec442f05000000000000000000000000000000000000000000000000000000008152600401611cde9190612617565b60405180910390fd5b611cf2838383611d48565b505050565b611d018282610ff7565b611d445780826040517fe2517d3f000000000000000000000000000000000000000000000000000000008152600401611d3b929190612ce7565b60405180910390fd5b5050565b600073ffffffffffffffffffffffffffffffffffffffff168373ffffffffffffffffffffffffffffffffffffffff1603611d9a578060026000828254611d8e91906128d6565b92505081905550611e6d565b60008060008573ffffffffffffffffffffffffffffffffffffffff1673ffffffffffffffffffffffffffffffffffffffff16815260200190815260200160002054905081811015611e26578381836040517fe450d38c000000000000000000000000000000000000000000000000000000008152600401611e1d93929190612cb0565b60405180910390fd5b8181036000808673ffffffffffffffffffffffffffffffffffffffff1673ffffffffffffffffffffffffffffffffffffffff16815260200190815260200160002081905550505b600073ffffffffffffffffffffffffffffffffffffffff168273ffffffffffffffffffffffffffffffffffffffff1603611eb65780600260008282540392505081905550611f03565b806000808473ffffffffffffffffffffffffffffffffffffffff1673ffffffffffffffffffffffffffffffffffffffff168152602001908152602001600020600082825401925050819055505b8173ffffffffffffffffffffffffffffffffffffffff168373ffffffffffffffffffffffffffffffffffffffff167fddf252ad1be2c89b69c2b068fc378daa952ba7f163c4a11628f55a4df523b3ef83604051611f6091906121d1565b60405180910390a3505050565b6000604051905090565b600080fd5b600080fd5b60007fffffffff0000000000000000000000000000000000000000000000000000000082169050919050565b611fb681611f81565b8114611fc157600080fd5b50565b600081359050611fd381611fad565b92915050565b600060208284031215611fef57611fee611f77565b5b6000611ffd84828501611fc4565b91505092915050565b60008115159050919050565b61201b81612006565b82525050565b60006020820190506120366000830184612012565b92915050565b600081519050919050565b600082825260208201905092915050565b60005b8381101561207657808201518184015260208101905061205b565b60008484015250505050565b6000601f19601f8301169050919050565b600061209e8261203c565b6120a88185612047565b93506120b8818560208601612058565b6120c181612082565b840191505092915050565b600060208201905081810360008301526120e68184612093565b905092915050565b600073ffffffffffffffffffffffffffffffffffffffff82169050919050565b6000612119826120ee565b9050919050565b6121298161210e565b811461213457600080fd5b50565b60008135905061214681612120565b92915050565b6000819050919050565b61215f8161214c565b811461216a57600080fd5b50565b60008135905061217c81612156565b92915050565b6000806040838503121561219957612198611f77565b5b60006121a785828601612137565b92505060206121b88582860161216d565b9150509250929050565b6121cb8161214c565b82525050565b60006020820190506121e660008301846121c2565b92915050565b60008060006060848603121561220557612204611f77565b5b600061221386828701612137565b935050602061222486828701612137565b92505060406122358682870161216d565b9150509250925092565b6000819050919050565b6122528161223f565b811461225d57600080fd5b50565b60008135905061226f81612249565b92915050565b60006020828403121561228b5761228a611f77565b5b600061229984828501612260565b91505092915050565b6122ab8161223f565b82525050565b60006020820190506122c660008301846122a2565b92915050565b600080604083850312156122e3576122e2611f77565b5b60006122f185828601612260565b925050602061230285828601612137565b9150509250929050565b600060ff82169050919050565b6123228161230c565b82525050565b600060208201905061233d6000830184612319565b92915050565b6000819050919050565b600061236861236361235e846120ee565b612343565b6120ee565b9050919050565b600061237a8261234d565b9050919050565b600061238c8261236f565b9050919050565b61239c81612381565b82525050565b60006020820190506123b76000830184612393565b92915050565b6000602082840312156123d3576123d2611f77565b5b60006123e184828501612137565b91505092915050565b600080fd5b600080fd5b7f4e487b7100000000000000000000000000000000000000000000000000000000600052604160045260246000fd5b61242c82612082565b810181811067ffffffffffffffff8211171561244b5761244a6123f4565b5b80604052505050565b600061245e611f6d565b905061246a8282612423565b919050565b600067ffffffffffffffff82111561248a576124896123f4565b5b61249382612082565b9050602081019050919050565b82818337600083830152505050565b60006124c26124bd8461246f565b612454565b9050828152602081018484840111156124de576124dd6123ef565b5b6124e98482856124a0565b509392505050565b600082601f830112612506576125056123ea565b5b81356125168482602086016124af565b91505092915050565b60006020828403121561253557612534611f77565b5b600082013567ffffffffffffffff81111561255357612552611f7c565b5b61255f848285016124f1565b91505092915050565b6000806040838503121561257f5761257e611f77565b5b600061258d85828601612137565b925050602061259e85828601612137565b9150509250929050565b7f4e487b7100000000000000000000000000000000000000000000000000000000600052602260045260246000fd5b600060028204905060018216806125ef57607f821691505b602082108103612602576126016125a8565b5b50919050565b6126118161210e565b82525050565b600060208201905061262c6000830184612608565b92915050565b61263b81612006565b811461264657600080fd5b50565b60008151905061265881612632565b92915050565b60006020828403121561267457612673611f77565b5b600061268284828501612649565b91505092915050565b7f525741546f6b656e3a2073656e646572206e6f74207665726966696564000000600082015250565b60006126c1601d83612047565b91506126cc8261268b565b602082019050919050565b600060208201905081810360008301526126f0816126b4565b9050919050565b7f525741546f6b656e3a207265636569766572206e6f7420766572696669656400600082015250565b600061272d601f83612047565b9150612738826126f7565b602082019050919050565b6000602082019050818103600083015261275c81612720565b9050919050565b7f525741546f6b656e3a2073656e64657220626c6f636b65640000000000000000600082015250565b6000612799601883612047565b91506127a482612763565b602082019050919050565b600060208201905081810360008301526127c88161278c565b9050919050565b7f525741546f6b656e3a20726563656976657220626c6f636b6564000000000000600082015250565b6000612805601a83612047565b9150612810826127cf565b602082019050919050565b60006020820190508181036000830152612834816127f8565b9050919050565b7f525741546f6b656e3a2073686172657320300000000000000000000000000000600082015250565b6000612871601283612047565b915061287c8261283b565b602082019050919050565b600060208201905081810360008301526128a081612864565b9050919050565b7f4e487b7100000000000000000000000000000000000000000000000000000000600052601160045260246000fd5b60006128e18261214c565b91506128ec8361214c565b9250828201905080821115612904576129036128a7565b5b92915050565b7f525741546f6b656e3a2065786365656473206d61782073686172657300000000600082015250565b6000612940601c83612047565b915061294b8261290a565b602082019050919050565b6000602082019050818103600083015261296f81612933565b9050919050565b60006129818261214c565b915061298c8361214c565b92508282039050818111156129a4576129a36128a7565b5b92915050565b7f45524332303a206275726e20616d6f756e74206578636565647320616c6c6f7760008201527f616e636500000000000000000000000000000000000000000000000000000000602082015250565b6000612a06602483612047565b9150612a11826129aa565b604082019050919050565b60006020820190508181036000830152612a35816129f9565b9050919050565b60008190508160005260206000209050919050565b60006020601f8301049050919050565b600082821b905092915050565b600060088302612a9e7fffffffffffffffffffffffffffffffffffffffffffffffffffffffffffffffff82612a61565b612aa88683612a61565b95508019841693508086168417925050509392505050565b6000612adb612ad6612ad18461214c565b612343565b61214c565b9050919050565b6000819050919050565b612af583612ac0565b612b09612b0182612ae2565b848454612a6e565b825550505050565b600090565b612b1e612b11565b612b29818484612aec565b505050565b5b81811015612b4d57612b42600082612b16565b600181019050612b2f565b5050565b601f821115612b9257612b6381612a3c565b612b6c84612a51565b81016020851015612b7b578190505b612b8f612b8785612a51565b830182612b2e565b50505b505050565b600082821c905092915050565b6000612bb560001984600802612b97565b1980831691505092915050565b6000612bce8383612ba4565b9150826002028217905092915050565b612be78261203c565b67ffffffffffffffff811115612c0057612bff6123f4565b5b612c0a82546125d7565b612c15828285612b51565b600060209050601f831160018114612c485760008415612c36578287015190505b612c408582612bc2565b865550612ca8565b601f198416612c5686612a3c565b60005b82811015612c7e57848901518255600182019150602085019450602081019050612c59565b86831015612c9b5784890151612c97601f891682612ba4565b8355505b6001600288020188555050505b505050505050565b6000606082019050612cc56000830186612608565b612cd260208301856121c2565b612cdf60408301846121c2565b949350505050565b6000604082019050612cfc6000830185612608565b612d0960208301846122a2565b939250505056fea26469706673582212202d4639f3c0ccfeb0561e871281fb2c14119020053e3aa8110ce41718e8e393f764736f6c634300081a0033a2646970667358221220b13047cd39564be92c70b77c9e0d86315a53b3ffa97d2cf4536e9035623dee8f64736f6c634300081a0033",
  "linkReferences": {},
  "deployedLinkReferences": {}
}