{
  "_format": "hh-sol-artifact-1",
  "contractName": "SaleEscrow",
  "sourceName": "contracts/SaleEscrowMarketplace.sol",
  "abi": [
    {
      "inputs": [
        {
          "internalType": "address",
          "name": "usdtAddress",
          "type": "address"
        },
        {
          "internalType": "address",
          "name": "kycRegistry",
          "type": "address"
        }
      ],
      "stateMutability": "nonpayable",
      "type": "constructor"
    },
    {
      "inputs": [],
      "name": "AccessControlBadConfirmation",
      "type": "error"
    },
    {
      "inputs": [
        {
          "internalType": "address",
          "name": "account",
          "type": "address"
        },
        {
          "internalType": "bytes32",
          "name": "neededRole",
          "type": "bytes32"
        }
      ],
      "name": "AccessControlUnauthorizedAccount",
      "type": "error"
    },
    {
      "anonymous": false,
      "inputs": [
        {
          "indexed": true,
          "internalType": "uint256",
          "name": "saleId",
          "type": "uint256"
        },
        {
          "indexed": true,
          "internalType": "address",
          "name": "buyer",
          "type": "address"
        },
        {
          "indexed": true,
          "internalType": "address",
          "name": "seller",
          "type": "address"
        },
        {
          "indexed": false,
          "internalType": "uint256",
          "name": "priceAmount",
          "type": "uint256"
        },
        {
          "indexed": false,
          "internalType": "uint256",
          "name": "releaseAfter",
          "type": "uint256"
        }
      ],
      "name": "PaymentLocked",
      "type": "event"
    },
    {
      "anonymous": false,
      "inputs": [
        {
          "indexed": true,
          "internalType": "uint256",
          "name": "saleId",
          "type": "uint256"
        },
        {
          "indexed": true,
          "internalType": "address",
          "name": "to",
          "type": "address"
        },
        {
          "indexed": false,
          "internalType": "uint256",
          "name": "priceAmount",
          "type": "uint256"
        }
      ],
      "name": "PaymentReleased",
      "type": "event"
    },
    {
      "anonymous": false,
      "inputs": [
        {
          "indexed": true,
          "internalType": "bytes32",
          "name": "role",
          "type": "bytes32"
        },
        {
          "indexed": true,
          "internalType": "bytes32",
          "name": "previousAdminRole",
          "type": "bytes32"
        },
        {
          "indexed": true,
          "internalType": "bytes32",
          "name": "newAdminRole",
          "type": "bytes32"
        }
      ],
      "name": "RoleAdminChanged",
      "type": "event"
    },
    {
      "anonymous": false,
      "inputs": [
        {
          "indexed": true,
          "internalType": "bytes32",
          "name": "role",
          "type": "bytes32"
        },
        {
          "indexed": true,
          "internalType": "address",
          "name": "account",
          "type": "address"
        },
        {
          "indexed": true,
          "internalType": "address",
          "name": "sender",
          "type": "address"
        }
      ],
      "name": "RoleGranted",
      "type": "event"
    },
    {
      "anonymous": false,
      "inputs": [
        {
          "indexed": true,
          "internalType": "bytes32",
          "name": "role",
          "type": "bytes32"
        },
        {
          "indexed": true,
          "internalType": "address",
          "name": "account",
          "type": "address"
        },
        {
          "indexed": true,
          "internalType": "address",
          "name": "sender",
          "type": "address"
        }
      ],
      "name": "RoleRevoked",
      "type": "event"
    },
    {
      "inputs": [],
      "name": "ARBITER_ROLE",
      "outputs": [
        {
          "internalType": "bytes32",
          "name": "",
          "type": "bytes32"
        }
      ],
      "stateMutability": "view",
      "type": "function"
    },
    {
      "inputs": [],
      "name": "DEFAULT_ADMIN_ROLE",
      "outputs": [
        {
          "internalType": "bytes32",
          "name": "",
          "type": "bytes32"
        }
      ],
      "stateMutability": "view",
      "type": "function"
    },
    {
      "inputs": [],
      "name": "MARKETPLACE_ROLE",
      "outputs": [
        {
          "internalType": "bytes32",
          "name": "",
          "type": "bytes32"
        }
      ],
      "stateMutability": "view",
      "type": "function"
    },
    {
      "inputs": [
        {
          "internalType": "address",
          "name": "to",
          "type": "address"
        },
        {
          "internalType": "uint256",
          "name": "amount",
          "type": "uint256"
        }
      ],
      "name": "adminWithdraw",
      "outputs": [],
      "stateMutability": "nonpayable",
      "type": "function"
    },
    {
      "inputs": [
        {
          "internalType": "uint256",
          "name": "saleId",
          "type": "uint256"
        }
      ],
      "name": "getPayment",
      "outputs": [
        {
          "internalType": "uint256",
          "name": "_saleId",
          "type": "uint256"
        },
        {
          "internalType": "address",
          "name": "_payer",
          "type": "address"
        },
        {
          "internalType": "address",
          "name": "_beneficiary",
          "type": "address"
        },
        {
          "internalType": "uint256",
          "name": "_amount",
          "type": "uint256"
        },
        {
          "internalType": "uint256",
          "name": "_releaseAfter",
          "type": "uint256"
        },
        {
          "internalType": "enum SaleEscrow.EscrowStatus",
          "name": "_status",
          "type": "uint8"
        }
      ],
      "stateMutability": "view",
      "type": "function"
    },
    {
      "inputs": [
        {
          "internalType": "bytes32",
          "name": "role",
          "type": "bytes32"
        }
      ],
      "name": "getRoleAdmin",
      "outputs": [
        {
          "internalType": "bytes32",
          "name": "",
          "type": "bytes32"
        }
      ],
      "stateMutability": "view",
      "type": "function"
    },
    {
      "inputs": [
        {
          "internalType": "bytes32",
          "name": "role",
          "type": "bytes32"
        },
        {
          "internalType": "address",
          "name": "account",
          "type": "address"
        }
      ],
      "name": "grantRole",
      "outputs": [],
      "stateMutability": "nonpayable",
      "type": "function"
    },
    {
      "inputs": [
        {
          "internalType": "bytes32",
          "name": "role",
          "type": "bytes32"
        },
        {
          "internalType": "address",
          "name": "account",
          "type": "address"
        }
      ],
      "name": "hasRole",
      "outputs": [
        {
          "internalType": "bool",
          "name": "",
          "type": "bool"
        }
      ],
      "stateMutability": "view",
      "type": "function"
    },
    {
      "inputs": [],
      "name": "kyc",
      "outputs": [
        {
          "internalType": "contract IKYCRegistry",
          "name": "",
          "type": "address"
        }
      ],
      "stateMutability": "view",
      "type": "function"
    },
    {
      "inputs": [
        {
          "internalType": "uint256",
          "name": "_id",
          "type": "uint256"
        },
        {
          "internalType": "contract IERC20",
          "name": "RWAToken",
          "type": "address"
        },
        {
          "internalType": "address",
          "name": "buyer",
          "type": "address"
        },
        {
          "internalType": "address",
          "name": "seller",
          "type": "address"
        },
        {
          "internalType": "uint256",
          "name": "priceAmount",
          "type": "uint256"
        },
        {
          "internalType": "uint256",
          "name": "releaseAfterTimestamp",
          "type": "uint256"
        }
      ],
      "name": "lockPayment",
      "outputs": [],
      "stateMutability": "nonpayable",
      "type": "function"
    },
    {
      "inputs": [
        {
          "internalType": "uint256",
          "name": "",
          "type": "uint256"
        }
      ],
      "name": "payments",
      "outputs": [
        {
          "internalType": "uint256",
          "name": "id",
          "type": "uint256"
        },
        {
          "internalType": "contract IERC20",
          "name": "RWAToken",
          "type": "address"
        },
        {
          "internalType": "address",
          "name": "buyer",
          "type": "address"
        },
        {
          "internalType": "address",
          "name": "seller",
          "type": "address"
        },
        {
          "internalType": "uint256",
          "name": "priceAmount",
          "type": "uint256"
        },
        {
          "internalType": "uint256",
          "name": "releaseAfter",
          "type": "uint256"
        },
        {
          "internalType": "enum SaleEscrow.EscrowStatus",
          "name": "status",
          "type": "uint8"
        }
      ],
      "stateMutability": "view",
      "type": "function"
    },
    {
      "inputs": [
        {
          "internalType": "uint256",
          "name": "saleId",
          "type": "uint256"
        }
      ],
      "name": "releaseIfTimedOut",
      "outputs": [],
      "stateMutability": "nonpayable",
      "type": "function"
    },
    {
      "inputs": [
        {
          "internalType": "uint256",
          "name": "_id",
          "type": "uint256"
        }
      ],
      "name": "releaseToSeller",
      "outputs": [],
      "stateMutability": "nonpayable",
      "type": "function"
    },
    {
      "inputs": [
        {
          "internalType": "bytes32",
          "name": "role",
          "type": "bytes32"
        },
        {
          "internalType": "address",
          "name": "callerConfirmation",
          "type": "address"
        }
      ],
      "name": "renounceRole",
      "outputs": [],
      "stateMutability": "nonpayable",
      "type": "function"
    },
    {
      "inputs": [
        {
          "internalType": "bytes32",
          "name": "role",
          "type": "bytes32"
        },
        {
          "internalType": "address",
          "name": "account",
          "type": "address"
        }
      ],
      "name": "revokeRole",
      "outputs": [],
      "stateMutability": "nonpayable",
      "type": "function"
    },
    {
      "inputs": [
        {
          "internalType": "address",
          "name": "marketplace",
          "type": "address"
        }
      ],
      "name": "setMarketplace",
      "outputs": [],
      "stateMutability": "nonpayable",
      "type": "function"
    },
    {
      "inputs": [
        {
          "internalType": "bytes4",
          "name": "interfaceId",
          "type": "bytes4"
        }
      ],
      "name": "supportsInterface",
      "outputs": [
        {
          "internalType": "bool",
          "name": "",
          "type": "bool"
        }
      ],
      "stateMutability": "view",
      "type": "function"
    },
    {
      "inputs": [],
      "name": "usdt",
      "outputs": [
        {
          "internalType": "contract IERC20",
          "name": "",
          "type": "address"
        }
      ],
      "stateMutability": "view",
      "type": "function"
    }
  ],
  "bytecode": "0x60c060405234801561001057600080fd5b5060405161283038038061283083398181016040528101906100329190610396565b600073ffffffffffffffffffffffffffffffffffffffff168273ffffffffffffffffffffffffffffffffffffffff16036100a1576040517f08c379a000000000000000000000000000000000000000000000000000000000815260040161009890610433565b60405180910390fd5b600073ffffffffffffffffffffffffffffffffffffffff168173ffffffffffffffffffffffffffffffffffffffff1603610110576040517f08c379a00000000000000000000000000000000000000000000000000000000081526004016101079061049f565b60405180910390fd5b8173ffffffffffffffffffffffffffffffffffffffff1660808173ffffffffffffffffffffffffffffffffffffffff16815250508073ffffffffffffffffffffffffffffffffffffffff1660a08173ffffffffffffffffffffffffffffffffffffffff168152505061018b6000801b336101c460201b60201c565b506101bc7fbb08418a67729a078f87bbc8d02a770929bb68f5bfdf134ae2ead6ed38e2f4ae336101c460201b60201c565b5050506104bf565b60006101d683836102c160201b60201c565b6102b657600160008085815260200190815260200160002060000160008473ffffffffffffffffffffffffffffffffffffffff1673ffffffffffffffffffffffffffffffffffffffff16815260200190815260200160002060006101000a81548160ff02191690831515021790555061025361032b60201b60201c565b73ffffffffffffffffffffffffffffffffffffffff168273ffffffffffffffffffffffffffffffffffffffff16847f2f8788117e7eff1d82e926ec794901d17c78024a50270940304540a733656f0d60405160405180910390a4600190506102bb565b600090505b92915050565b600080600084815260200190815260200160002060000160008373ffffffffffffffffffffffffffffffffffffffff1673ffffffffffffffffffffffffffffffffffffffff16815260200190815260200160002060009054906101000a900460ff16905092915050565b600033905090565b600080fd5b600073ffffffffffffffffffffffffffffffffffffffff82169050919050565b600061036382610338565b9050919050565b61037381610358565b811461037e57600080fd5b50565b6000815190506103908161036a565b92915050565b600080604083850312156103ad576103ac610333565b5b60006103bb85828601610381565b92505060206103cc85828601610381565b9150509250929050565b600082825260208201905092915050565b7f457363726f773a2075736474207a65726f000000000000000000000000000000600082015250565b600061041d6011836103d6565b9150610428826103e7565b602082019050919050565b6000602082019050818103600083015261044c81610410565b9050919050565b7f457363726f773a206b7963207a65726f00000000000000000000000000000000600082015250565b60006104896010836103d6565b915061049482610453565b602082019050919050565b600060208201905081810360008301526104b88161047c565b9050919050565b60805160a05161231461051c60003960008181610518015281816105b9015281816106940152818161073501528181610b5e01526113eb015260008181610a8201528181610d0001528181610ffe015261118b01526123146000f3fe608060405234801561001057600080fd5b50600436106101165760003560e01c8063401d4482116100a257806390d6b45f1161007157806390d6b45f146102e657806391d1485414610304578063a217fddf14610334578063c3439f3f14610352578063d547741f1461037057610116565b8063401d44821461025a5780634d104adf1461027657806373ad6c2d1461029457806387d81789146102b057610116565b80632f48ab7d116100e95780632f48ab7d146101b35780633280a836146101d157806333e233111461020657806336568abe14610222578063392dcd4d1461023e57610116565b806301ffc9a71461011b57806317319ef61461014b578063248a9ca3146101675780632f2ff15d14610197575b600080fd5b610135600480360381019061013091906117db565b61038c565b6040516101429190611823565b60405180910390f35b61016560048036038101906101609190611910565b610406565b005b610181600480360381019061017c91906119d3565b610a3f565b60405161018e9190611a0f565b60405180910390f35b6101b160048036038101906101ac9190611a2a565b610a5e565b005b6101bb610a80565b6040516101c89190611ac9565b60405180910390f35b6101eb60048036038101906101e69190611ae4565b610aa4565b6040516101fd96959493929190611ba6565b60405180910390f35b610220600480360381019061021b9190611ae4565b610b45565b005b61023c60048036038101906102379190611a2a565b610e7e565b005b61025860048036038101906102539190611ae4565b610ef9565b005b610274600480360381019061026f9190611c07565b61117c565b005b61027e61126b565b60405161028b9190611a0f565b60405180910390f35b6102ae60048036038101906102a99190611c47565b61128f565b005b6102ca60048036038101906102c59190611ae4565b61133a565b6040516102dd9796959493929190611c74565b60405180910390f35b6102ee6113e9565b6040516102fb9190611d04565b60405180910390f35b61031e60048036038101906103199190611a2a565b61140d565b60405161032b9190611823565b60405180910390f35b61033c611477565b6040516103499190611a0f565b60405180910390f35b61035a61147e565b6040516103679190611a0f565b60405180910390f35b61038a60048036038101906103859190611a2a565b6114a2565b005b60007f7965db0b000000000000000000000000000000000000000000000000000000007bffffffffffffffffffffffffffffffffffffffffffffffffffffffff1916827bffffffffffffffffffffffffffffffffffffffffffffffffffffffff191614806103ff57506103fe826114c4565b5b9050919050565b60008603610449576040517f08c379a000000000000000000000000000000000000000000000000000000000815260040161044090611d7c565b60405180910390fd5b6000600281111561045d5761045c611b2f565b5b6001600088815260200190815260200160002060060160009054906101000a900460ff16600281111561049357610492611b2f565b5b146104d3576040517f08c379a00000000000000000000000000000000000000000000000000000000081526004016104ca90611de8565b60405180910390fd5b60008211610516576040517f08c379a000000000000000000000000000000000000000000000000000000000815260040161050d90611e54565b60405180910390fd5b7f000000000000000000000000000000000000000000000000000000000000000073ffffffffffffffffffffffffffffffffffffffff1663ace417e0856040518263ffffffff1660e01b815260040161056f9190611e74565b602060405180830381865afa15801561058c573d6000803e3d6000fd5b505050506040513d601f19601f820116820180604052508101906105b09190611ebb565b801561065357507f000000000000000000000000000000000000000000000000000000000000000073ffffffffffffffffffffffffffffffffffffffff1663b4a77b0e856040518263ffffffff1660e01b81526004016106109190611e74565b602060405180830381865afa15801561062d573d6000803e3d6000fd5b505050506040513d601f19601f820116820180604052508101906106519190611ebb565b155b610692576040517f08c379a000000000000000000000000000000000000000000000000000000000815260040161068990611f34565b60405180910390fd5b7f000000000000000000000000000000000000000000000000000000000000000073ffffffffffffffffffffffffffffffffffffffff1663ace417e0846040518263ffffffff1660e01b81526004016106eb9190611e74565b602060405180830381865afa158015610708573d6000803e3d6000fd5b505050506040513d601f19601f8201168201806040525081019061072c9190611ebb565b80156107cf57507f000000000000000000000000000000000000000000000000000000000000000073ffffffffffffffffffffffffffffffffffffffff1663b4a77b0e846040518263ffffffff1660e01b815260040161078c9190611e74565b602060405180830381865afa1580156107a9573d6000803e3d6000fd5b505050506040513d601f19601f820116820180604052508101906107cd9190611ebb565b155b61080e576040517f08c379a000000000000000000000000000000000000000000000000000000000815260040161080590611fa0565b60405180910390fd5b6040518060e001604052808781526020018673ffffffffffffffffffffffffffffffffffffffff1681526020018573ffffffffffffffffffffffffffffffffffffffff1681526020018473ffffffffffffffffffffffffffffffffffffffff1681526020018381526020018281526020016001600281111561089357610892611b2f565b5b815250600160008881526020019081526020016000206000820151816000015560208201518160010160006101000a81548173ffffffffffffffffffffffffffffffffffffffff021916908373ffffffffffffffffffffffffffffffffffffffff16021790555060408201518160020160006101000a81548173ffffffffffffffffffffffffffffffffffffffff021916908373ffffffffffffffffffffffffffffffffffffffff16021790555060608201518160030160006101000a81548173ffffffffffffffffffffffffffffffffffffffff021916908373ffffffffffffffffffffffffffffffffffffffff1602179055506080820151816004015560a0820151816005015560c08201518160060160006101000a81548160ff021916908360028111156109c7576109c6611b2f565b5b02179055509050508273ffffffffffffffffffffffffffffffffffffffff168473ffffffffffffffffffffffffffffffffffffffff16877f85974639ac96d9eff81dd2ed59254eb12f7295568f6fdca2427884b4ae883f668585604051610a2f929190611fc0565b60405180910390a4505050505050565b6000806000838152602001908152602001600020600101549050919050565b610a6782610a3f565b610a708161152e565b610a7a8383611542565b50505050565b7f000000000000000000000000000000000000000000000000000000000000000081565b600080600080600080600060016000898152602001908152602001600020905080600001548160020160009054906101000a900473ffffffffffffffffffffffffffffffffffffffff168260030160009054906101000a900473ffffffffffffffffffffffffffffffffffffffff16836004015484600501548560060160009054906101000a900460ff169650965096509650965096505091939550919395565b60006001600083815260200190815260200160002090507f000000000000000000000000000000000000000000000000000000000000000073ffffffffffffffffffffffffffffffffffffffff1663ace417e08260030160009054906101000a900473ffffffffffffffffffffffffffffffffffffffff166040518263ffffffff1660e01b8152600401610bd99190611e74565b602060405180830381865afa158015610bf6573d6000803e3d6000fd5b505050506040513d601f19601f82011682018060405250810190610c1a9190611ebb565b610c59576040517f08c379a0000000000000000000000000000000000000000000000000000000008152600401610c5090612035565b60405180910390fd5b60016002811115610c6d57610c6c611b2f565b5b8160060160009054906101000a900460ff166002811115610c9157610c90611b2f565b5b14610cd1576040517f08c379a0000000000000000000000000000000000000000000000000000000008152600401610cc8906120a1565b60405180910390fd5b60028160060160006101000a81548160ff02191690836002811115610cf957610cf8611b2f565b5b02179055507f000000000000000000000000000000000000000000000000000000000000000073ffffffffffffffffffffffffffffffffffffffff1663a9059cbb8260030160009054906101000a900473ffffffffffffffffffffffffffffffffffffffff1683600401546040518363ffffffff1660e01b8152600401610d819291906120c1565b6020604051808303816000875af1158015610da0573d6000803e3d6000fd5b505050506040513d601f19601f82011682018060405250810190610dc49190611ebb565b610e03576040517f08c379a0000000000000000000000000000000000000000000000000000000008152600401610dfa90612136565b60405180910390fd5b8060030160009054906101000a900473ffffffffffffffffffffffffffffffffffffffff1673ffffffffffffffffffffffffffffffffffffffff16827f21d71db5be59bb9fa133895586b7404307dd33fb93b16db09dc6f1d9d7d231b08360040154604051610e729190612156565b60405180910390a35050565b610e86611633565b73ffffffffffffffffffffffffffffffffffffffff168173ffffffffffffffffffffffffffffffffffffffff1614610eea576040517f6697b23200000000000000000000000000000000000000000000000000000000815260040160405180910390fd5b610ef4828261163b565b505050565b600060016000838152602001908152602001600020905060016002811115610f2457610f23611b2f565b5b8160060160009054906101000a900460ff166002811115610f4857610f47611b2f565b5b14610f88576040517f08c379a0000000000000000000000000000000000000000000000000000000008152600401610f7f906120a1565b60405180910390fd5b8060050154421015610fcf576040517f08c379a0000000000000000000000000000000000000000000000000000000008152600401610fc6906121bd565b60405180910390fd5b60028160060160006101000a81548160ff02191690836002811115610ff757610ff6611b2f565b5b02179055507f000000000000000000000000000000000000000000000000000000000000000073ffffffffffffffffffffffffffffffffffffffff1663a9059cbb8260030160009054906101000a900473ffffffffffffffffffffffffffffffffffffffff1683600401546040518363ffffffff1660e01b815260040161107f9291906120c1565b6020604051808303816000875af115801561109e573d6000803e3d6000fd5b505050506040513d601f19601f820116820180604052508101906110c29190611ebb565b611101576040517f08c379a00000000000000000000000000000000000000000000000000000000081526004016110f890612136565b60405180910390fd5b8060030160009054906101000a900473ffffffffffffffffffffffffffffffffffffffff1673ffffffffffffffffffffffffffffffffffffffff16827f21d71db5be59bb9fa133895586b7404307dd33fb93b16db09dc6f1d9d7d231b083600401546040516111709190612156565b60405180910390a35050565b6000801b6111898161152e565b7f000000000000000000000000000000000000000000000000000000000000000073ffffffffffffffffffffffffffffffffffffffff1663a9059cbb84846040518363ffffffff1660e01b81526004016111e49291906120c1565b6020604051808303816000875af1158015611203573d6000803e3d6000fd5b505050506040513d601f19601f820116820180604052508101906112279190611ebb565b611266576040517f08c379a000000000000000000000000000000000000000000000000000000000815260040161125d90612229565b60405180910390fd5b505050565b7fbb08418a67729a078f87bbc8d02a770929bb68f5bfdf134ae2ead6ed38e2f4ae81565b6000801b61129c8161152e565b600073ffffffffffffffffffffffffffffffffffffffff168273ffffffffffffffffffffffffffffffffffffffff160361130b576040517f08c379a000000000000000000000000000000000000000000000000000000000815260040161130290612295565b60405180910390fd5b6113357f0ea61da3a8a09ad801432653699f8c1860b1ae9d2ea4a141fadfd63227717bc883611542565b505050565b60016020528060005260406000206000915090508060000154908060010160009054906101000a900473ffffffffffffffffffffffffffffffffffffffff16908060020160009054906101000a900473ffffffffffffffffffffffffffffffffffffffff16908060030160009054906101000a900473ffffffffffffffffffffffffffffffffffffffff16908060040154908060050154908060060160009054906101000a900460ff16905087565b7f000000000000000000000000000000000000000000000000000000000000000081565b600080600084815260200190815260200160002060000160008373ffffffffffffffffffffffffffffffffffffffff1673ffffffffffffffffffffffffffffffffffffffff16815260200190815260200160002060009054906101000a900460ff16905092915050565b6000801b81565b7f0ea61da3a8a09ad801432653699f8c1860b1ae9d2ea4a141fadfd63227717bc881565b6114ab82610a3f565b6114b48161152e565b6114be838361163b565b50505050565b60007f01ffc9a7000000000000000000000000000000000000000000000000000000007bffffffffffffffffffffffffffffffffffffffffffffffffffffffff1916827bffffffffffffffffffffffffffffffffffffffffffffffffffffffff1916149050919050565b61153f8161153a611633565b61172d565b50565b600061154e838361140d565b61162857600160008085815260200190815260200160002060000160008473ffffffffffffffffffffffffffffffffffffffff1673ffffffffffffffffffffffffffffffffffffffff16815260200190815260200160002060006101000a81548160ff0219169083151502179055506115c5611633565b73ffffffffffffffffffffffffffffffffffffffff168273ffffffffffffffffffffffffffffffffffffffff16847f2f8788117e7eff1d82e926ec794901d17c78024a50270940304540a733656f0d60405160405180910390a46001905061162d565b600090505b92915050565b600033905090565b6000611647838361140d565b1561172257600080600085815260200190815260200160002060000160008473ffffffffffffffffffffffffffffffffffffffff1673ffffffffffffffffffffffffffffffffffffffff16815260200190815260200160002060006101000a81548160ff0219169083151502179055506116bf611633565b73ffffffffffffffffffffffffffffffffffffffff168273ffffffffffffffffffffffffffffffffffffffff16847ff6391f5c32d9c69d2a47ea670b442974b53935d1edc7fd64eb21e047a839171b60405160405180910390a460019050611727565b600090505b92915050565b611737828261140d565b61177a5780826040517fe2517d3f0000000000000000000000000000000000000000000000000000000081526004016117719291906122b5565b60405180910390fd5b5050565b600080fd5b60007fffffffff0000000000000000000000000000000000000000000000000000000082169050919050565b6117b881611783565b81146117c357600080fd5b50565b6000813590506117d5816117af565b92915050565b6000602082840312156117f1576117f061177e565b5b60006117ff848285016117c6565b91505092915050565b60008115159050919050565b61181d81611808565b82525050565b60006020820190506118386000830184611814565b92915050565b6000819050919050565b6118518161183e565b811461185c57600080fd5b50565b60008135905061186e81611848565b92915050565b600073ffffffffffffffffffffffffffffffffffffffff82169050919050565b600061189f82611874565b9050919050565b60006118b182611894565b9050919050565b6118c1816118a6565b81146118cc57600080fd5b50565b6000813590506118de816118b8565b92915050565b6118ed81611894565b81146118f857600080fd5b50565b60008135905061190a816118e4565b92915050565b60008060008060008060c0878903121561192d5761192c61177e565b5b600061193b89828a0161185f565b965050602061194c89828a016118cf565b955050604061195d89828a016118fb565b945050606061196e89828a016118fb565b935050608061197f89828a0161185f565b92505060a061199089828a0161185f565b9150509295509295509295565b6000819050919050565b6119b08161199d565b81146119bb57600080fd5b50565b6000813590506119cd816119a7565b92915050565b6000602082840312156119e9576119e861177e565b5b60006119f7848285016119be565b91505092915050565b611a098161199d565b82525050565b6000602082019050611a246000830184611a00565b92915050565b60008060408385031215611a4157611a4061177e565b5b6000611a4f858286016119be565b9250506020611a60858286016118fb565b9150509250929050565b6000819050919050565b6000611a8f611a8a611a8584611874565b611a6a565b611874565b9050919050565b6000611aa182611a74565b9050919050565b6000611ab382611a96565b9050919050565b611ac381611aa8565b82525050565b6000602082019050611ade6000830184611aba565b92915050565b600060208284031215611afa57611af961177e565b5b6000611b088482850161185f565b91505092915050565b611b1a8161183e565b82525050565b611b2981611894565b82525050565b7f4e487b7100000000000000000000000000000000000000000000000000000000600052602160045260246000fd5b60038110611b6f57611b6e611b2f565b5b50565b6000819050611b8082611b5e565b919050565b6000611b9082611b72565b9050919050565b611ba081611b85565b82525050565b600060c082019050611bbb6000830189611b11565b611bc86020830188611b20565b611bd56040830187611b20565b611be26060830186611b11565b611bef6080830185611b11565b611bfc60a0830184611b97565b979650505050505050565b60008060408385031215611c1e57611c1d61177e565b5b6000611c2c858286016118fb565b9250506020611c3d8582860161185f565b9150509250929050565b600060208284031215611c5d57611c5c61177e565b5b6000611c6b848285016118fb565b91505092915050565b600060e082019050611c89600083018a611b11565b611c966020830189611aba565b611ca36040830188611b20565b611cb06060830187611b20565b611cbd6080830186611b11565b611cca60a0830185611b11565b611cd760c0830184611b97565b98975050505050505050565b6000611cee82611a96565b9050919050565b611cfe81611ce3565b82525050565b6000602082019050611d196000830184611cf5565b92915050565b600082825260208201905092915050565b7f457363726f773a2073616c654964203000000000000000000000000000000000600082015250565b6000611d66601083611d1f565b9150611d7182611d30565b602082019050919050565b60006020820190508181036000830152611d9581611d59565b9050919050565b7f457363726f773a20616c72656164792065786973747300000000000000000000600082015250565b6000611dd2601683611d1f565b9150611ddd82611d9c565b602082019050919050565b60006020820190508181036000830152611e0181611dc5565b9050919050565b7f457363726f773a20616d6f756e74203000000000000000000000000000000000600082015250565b6000611e3e601083611d1f565b9150611e4982611e08565b602082019050919050565b60006020820190508181036000830152611e6d81611e31565b9050919050565b6000602082019050611e896000830184611b20565b92915050565b611e9881611808565b8114611ea357600080fd5b50565b600081519050611eb581611e8f565b92915050565b600060208284031215611ed157611ed061177e565b5b6000611edf84828501611ea6565b91505092915050565b7f457363726f773a207061796572206e6f74207665726966696564000000000000600082015250565b6000611f1e601a83611d1f565b9150611f2982611ee8565b602082019050919050565b60006020820190508181036000830152611f4d81611f11565b9050919050565b7f457363726f773a2062656e6566696369617279206e6f74207665726966696564600082015250565b6000611f8a602083611d1f565b9150611f9582611f54565b602082019050919050565b60006020820190508181036000830152611fb981611f7d565b9050919050565b6000604082019050611fd56000830185611b11565b611fe26020830184611b11565b9392505050565b7f457363726f773a2073656c6c6572206e6f742076657269666965640000000000600082015250565b600061201f601b83611d1f565b915061202a82611fe9565b602082019050919050565b6000602082019050818103600083015261204e81612012565b9050919050565b7f457363726f773a206e6f74206c6f636b65640000000000000000000000000000600082015250565b600061208b601283611d1f565b915061209682612055565b602082019050919050565b600060208201905081810360008301526120ba8161207e565b9050919050565b60006040820190506120d66000830185611b20565b6120e36020830184611b11565b9392505050565b7f457363726f773a207472616e73666572206661696c6564000000000000000000600082015250565b6000612120601783611d1f565b915061212b826120ea565b602082019050919050565b6000602082019050818103600083015261214f81612113565b9050919050565b600060208201905061216b6000830184611b11565b92915050565b7f457363726f773a206e6f74207965742074696d6564206f757400000000000000600082015250565b60006121a7601983611d1f565b91506121b282612171565b602082019050919050565b600060208201905081810360008301526121d68161219a565b9050919050565b7f457363726f773a2061646d696e207769746864726177206661696c6564000000600082015250565b6000612213601d83611d1f565b915061221e826121dd565b602082019050919050565b6000602082019050818103600083015261224281612206565b9050919050565b7f457363726f773a206d61726b6574706c616365207a65726f0000000000000000600082015250565b600061227f601883611d1f565b915061228a82612249565b602082019050919050565b600060208201905081810360008301526122ae81612272565b9050919050565b60006040820190506122ca6000830185611b20565b6122d76020830184611a00565b939250505056fea2646970667358221220888eeb1e6c7221dcd2a44c693bf7d8d0459d77aefbe6ff5604ea22b19c79ca5264736f6c634300081a0033",
  "linkReferences": {},
  "deployedLinkReferences": {}
}