{
  "_format": "hh-sol-artifact-1",
  "contractName": "SaleMarketplace",
  "sourceName": "contracts/SaleEscrowMarketplace.sol",
  "abi": [
    {
      "inputs": [
        {
          "internalType": "address",
          "name": "usdtAddr",
          "type": "address"
        },
        {
          "internalType": "address",
          "name": "kycRegistry",
          "type": "address"
        },
        {
          "internalType": "address",
          "name": "escrowAddr",
          "type": "address"
        }
      ],
      "stateMutability": "nonpayable",
      "type": "constructor"
    },
    {
      "inputs": [],
      "name": "AccessControlBadConfirmation",
      "type": "error"
    },
    {
      "inputs": [
        {
          "internalType": "address",
          "name": "account",
          "type": "address"
        },
        {
          "internalType": "bytes32",
          "name": "neededRole",
          "type": "bytes32"
        }
      ],
      "name": "AccessControlUnauthorizedAccount",
      "type": "error"
    },
    {
      "anonymous": false,
      "inputs": [
        {
          "indexed": true,
          "internalType": "uint256",
          "name": "saleId",
          "type": "uint256"
        }
      ],
      "name": "Cancelled",
      "type": "event"
    },
    {
      "anonymous": false,
      "inputs": [
        {
          "indexed": true,
          "internalType": "uint256",
          "name": "saleId",
          "type": "uint256"
        },
        {
          "indexed": true,
          "internalType": "address",
          "name": "buyer",
          "type": "address"
        }
      ],
      "name": "DeliveryConfirmed",
      "type": "event"
    },
    {
      "anonymous": false,
      "inputs": [
        {
          "indexed": true,
          "internalType": "uint256",
          "name": "saleId",
          "type": "uint256"
        },
        {
          "indexed": true,
          "internalType": "address",
          "name": "buyer",
          "type": "address"
        },
        {
          "indexed": false,
          "internalType": "uint256",
          "name": "price",
          "type": "uint256"
        }
      ],
      "name": "Purchased",
      "type": "event"
    },
    {
      "anonymous": false,
      "inputs": [
        {
          "indexed": true,
          "internalType": "bytes32",
          "name": "role",
          "type": "bytes32"
        },
        {
          "indexed": true,
          "internalType": "bytes32",
          "name": "previousAdminRole",
          "type": "bytes32"
        },
        {
          "indexed": true,
          "internalType": "bytes32",
          "name": "newAdminRole",
          "type": "bytes32"
        }
      ],
      "name": "RoleAdminChanged",
      "type": "event"
    },
    {
      "anonymous": false,
      "inputs": [
        {
          "indexed": true,
          "internalType": "bytes32",
          "name": "role",
          "type": "bytes32"
        },
        {
          "indexed": true,
          "internalType": "address",
          "name": "account",
          "type": "address"
        },
        {
          "indexed": true,
          "internalType": "address",
          "name": "sender",
          "type": "address"
        }
      ],
      "name": "RoleGranted",
      "type": "event"
    },
    {
      "anonymous": false,
      "inputs": [
        {
          "indexed": true,
          "internalType": "bytes32",
          "name": "role",
          "type": "bytes32"
        },
        {
          "indexed": true,
          "internalType": "address",
          "name": "account",
          "type": "address"
        },
        {
          "indexed": true,
          "internalType": "address",
          "name": "sender",
          "type": "address"
        }
      ],
      "name": "RoleRevoked",
      "type": "event"
    },
    {
      "anonymous": false,
      "inputs": [
        {
          "indexed": true,
          "internalType": "uint256",
          "name": "saleId",
          "type": "uint256"
        },
        {
          "indexed": true,
          "internalType": "contract IERC20",
          "name": "RWAToken",
          "type": "address"
        },
        {
          "indexed": true,
          "internalType": "address",
          "name": "seller",
          "type": "address"
        },
        {
          "indexed": false,
          "internalType": "uint256",
          "name": "price",
          "type": "uint256"
        },
        {
          "indexed": false,
          "internalType": "uint256",
          "name": "listingTime",
          "type": "uint256"
        }
      ],
      "name": "SaleCreated",
      "type": "event"
    },
    {
      "anonymous": false,
      "inputs": [
        {
          "indexed": true,
          "internalType": "uint256",
          "name": "saleId",
          "type": "uint256"
        },
        {
          "indexed": false,
          "internalType": "string",
          "name": "trackingInfo",
          "type": "string"
        }
      ],
      "name": "Shipped",
      "type": "event"
    },
    {
      "inputs": [],
      "name": "DEFAULT_ADMIN_ROLE",
      "outputs": [
        {
          "internalType": "bytes32",
          "name": "",
          "type": "bytes32"
        }
      ],
      "stateMutability": "view",
      "type": "function"
    },
    {
      "inputs": [],
      "name": "KYC_MANAGER_ROLE",
      "outputs": [
        {
          "internalType": "bytes32",
          "name": "",
          "type": "bytes32"
        }
      ],
      "stateMutability": "view",
      "type": "function"
    },
    {
      "inputs": [],
      "name": "LISTING_MANAGER_ROLE",
      "outputs": [
        {
          "internalType": "bytes32",
          "name": "",
          "type": "bytes32"
        }
      ],
      "stateMutability": "view",
      "type": "function"
    },
    {
      "inputs": [
        {
          "internalType": "uint256",
          "name": "saleId",
          "type": "uint256"
        }
      ],
      "name": "cancelListing",
      "outputs": [],
      "stateMutability": "nonpayable",
      "type": "function"
    },
    {
      "inputs": [
        {
          "internalType": "uint256",
          "name": "saleId",
          "type": "uint256"
        }
      ],
      "name": "confirmDelivery",
      "outputs": [],
      "stateMutability": "nonpayable",
      "type": "function"
    },
    {
      "inputs": [
        {
          "internalType": "contract IERC20",
          "name": "RWAToken",
          "type": "address"
        },
        {
          "internalType": "uint256",
          "name": "share",
          "type": "uint256"
        },
        {
          "internalType": "uint256",
          "name": "price",
          "type": "uint256"
        }
      ],
      "name": "createListing",
      "outputs": [
        {
          "internalType": "uint256",
          "name": "",
          "type": "uint256"
        }
      ],
      "stateMutability": "nonpayable",
      "type": "function"
    },
    {
      "inputs": [],
      "name": "escrow",
      "outputs": [
        {
          "internalType": "contract SaleEscrow",
          "name": "",
          "type": "address"
        }
      ],
      "stateMutability": "view",
      "type": "function"
    },
    {
      "inputs": [],
      "name": "getListedSaleIds",
      "outputs": [
        {
          "internalType": "uint256[]",
          "name": "",
          "type": "uint256[]"
        }
      ],
      "stateMutability": "view",
      "type": "function"
    },
    {
      "inputs": [
        {
          "internalType": "bytes32",
          "name": "role",
          "type": "bytes32"
        }
      ],
      "name": "getRoleAdmin",
      "outputs": [
        {
          "internalType": "bytes32",
          "name": "",
          "type": "bytes32"
        }
      ],
      "stateMutability": "view",
      "type": "function"
    },
    {
      "inputs": [
        {
          "internalType": "uint256",
          "name": "saleId",
          "type": "uint256"
        }
      ],
      "name": "getSale",
      "outputs": [
        {
          "internalType": "contract IERC20",
          "name": "RWAToken",
          "type": "address"
        },
        {
          "internalType": "uint256",
          "name": "share",
          "type": "uint256"
        },
        {
          "internalType": "address",
          "name": "seller",
          "type": "address"
        },
        {
          "internalType": "address",
          "name": "buyer",
          "type": "address"
        },
        {
          "internalType": "uint256",
          "name": "price",
          "type": "uint256"
        },
        {
          "internalType": "uint256",
          "name": "createdAt",
          "type": "uint256"
        },
        {
          "internalType": "uint256",
          "name": "purchasedAt",
          "type": "uint256"
        },
        {
          "internalType": "uint256",
          "name": "autoReleaseAfter",
          "type": "uint256"
        },
        {
          "internalType": "string",
          "name": "trackingInfo",
          "type": "string"
        },
        {
          "internalType": "enum SaleMarketplace.SaleStatus",
          "name": "status",
          "type": "uint8"
        }
      ],
      "stateMutability": "view",
      "type": "function"
    },
    {
      "inputs": [
        {
          "internalType": "bytes32",
          "name": "role",
          "type": "bytes32"
        },
        {
          "internalType": "address",
          "name": "account",
          "type": "address"
        }
      ],
      "name": "grantRole",
      "outputs": [],
      "stateMutability": "nonpayable",
      "type": "function"
    },
    {
      "inputs": [
        {
          "internalType": "bytes32",
          "name": "role",
          "type": "bytes32"
        },
        {
          "internalType": "address",
          "name": "account",
          "type": "address"
        }
      ],
      "name": "hasRole",
      "outputs": [
        {
          "internalType": "bool",
          "name": "",
          "type": "bool"
        }
      ],
      "stateMutability": "view",
      "type": "function"
    },
    {
      "inputs": [],
      "name": "kyc",
      "outputs": [
        {
          "internalType": "contract IKYCRegistry",
          "name": "",
          "type": "address"
        }
      ],
      "stateMutability": "view",
      "type": "function"
    },
    {
      "inputs": [
        {
          "internalType": "uint256",
          "name": "saleId",
          "type": "uint256"
        },
        {
          "internalType": "string",
          "name": "trackingInfo",
          "type": "string"
        }
      ],
      "name": "markShipped",
      "outputs": [],
      "stateMutability": "nonpayable",
      "type": "function"
    },
    {
      "inputs": [
        {
          "internalType": "uint256",
          "name": "saleId",
          "type": "uint256"
        }
      ],
      "name": "purchase",
      "outputs": [],
      "stateMutability": "nonpayable",
      "type": "function"
    },
    {
      "inputs": [],
      "name": "registerWithEscrow",
      "outputs": [],
      "stateMutability": "nonpayable",
      "type": "function"
    },
    {
      "inputs": [
        {
          "internalType": "bytes32",
          "name": "role",
          "type": "bytes32"
        },
        {
          "internalType": "address",
          "name": "callerConfirmation",
          "type": "address"
        }
      ],
      "name": "renounceRole",
      "outputs": [],
      "stateMutability": "nonpayable",
      "type": "function"
    },
    {
      "inputs": [
        {
          "internalType": "bytes32",
          "name": "role",
          "type": "bytes32"
        },
        {
          "internalType": "address",
          "name": "account",
          "type": "address"
        }
      ],
      "name": "revokeRole",
      "outputs": [],
      "stateMutability": "nonpayable",
      "type": "function"
    },
    {
      "inputs": [
        {
          "internalType": "uint256",
          "name": "",
          "type": "uint256"
        }
      ],
      "name": "sales",
      "outputs": [
        {
          "internalType": "contract IERC20",
          "name": "RWAToken",
          "type": "address"
        },
        {
          "internalType": "uint256",
          "name": "share",
          "type": "uint256"
        },
        {
          "internalType": "address",
          "name": "seller",
          "type": "address"
        },
        {
          "internalType": "address",
          "name": "buyer",
          "type": "address"
        },
        {
          "internalType": "uint256",
          "name": "price",
          "type": "uint256"
        },
        {
          "internalType": "uint256",
          "name": "createdAt",
          "type": "uint256"
        },
        {
          "internalType": "uint256",
          "name": "purchasedAt",
          "type": "uint256"
        },
        {
          "internalType": "uint256",
          "name": "autoReleaseAfter",
          "type": "uint256"
        },
        {
          "internalType": "string",
          "name": "trackingInfo",
          "type": "string"
        },
        {
          "internalType": "enum SaleMarketplace.SaleStatus",
          "name": "status",
          "type": "uint8"
        }
      ],
      "stateMutability": "view",
      "type": "function"
    },
    {
      "inputs": [
        {
          "internalType": "bytes4",
          "name": "interfaceId",
          "type": "bytes4"
        }
      ],
      "name": "supportsInterface",
      "outputs": [
        {
          "internalType": "bool",
          "name": "",
          "type": "bool"
        }
      ],
      "stateMutability": "view",
      "type": "function"
    },
    {
      "inputs": [],
      "name": "usdt",
      "outputs": [
        {
          "internalType": "contract IERC20",
          "name": "",
          "type": "address"
        }
      ],
      "stateMutability": "view",
      "type": "function"
    }
  ],
  "bytecode": "0x60e060405234801561001057600080fd5b50604051613901380380613901833981810160405281019061003291906103cf565b600073ffffffffffffffffffffffffffffffffffffffff168373ffffffffffffffffffffffffffffffffffffffff161415801561009c5750600073ffffffffffffffffffffffffffffffffffffffff168273ffffffffffffffffffffffffffffffffffffffff1614155b80156100d55750600073ffffffffffffffffffffffffffffffffffffffff168173ffffffffffffffffffffffffffffffffffffffff1614155b610114576040517f08c379a000000000000000000000000000000000000000000000000000000000815260040161010b9061047f565b60405180910390fd5b8273ffffffffffffffffffffffffffffffffffffffff1660a08173ffffffffffffffffffffffffffffffffffffffff16815250508173ffffffffffffffffffffffffffffffffffffffff1660808173ffffffffffffffffffffffffffffffffffffffff16815250508073ffffffffffffffffffffffffffffffffffffffff1660c08173ffffffffffffffffffffffffffffffffffffffff16815250506101c36000801b336101fd60201b60201c565b506101f47f03a05e98ec2ea6e0cec1e1aac227f4f78a1c66794d89a03d375e15a59b3b14b9336101fd60201b60201c565b5050505061049f565b600061020f83836102fa60201b60201c565b6102ef57600160008085815260200190815260200160002060000160008473ffffffffffffffffffffffffffffffffffffffff1673ffffffffffffffffffffffffffffffffffffffff16815260200190815260200160002060006101000a81548160ff02191690831515021790555061028c61036460201b60201c565b73ffffffffffffffffffffffffffffffffffffffff168273ffffffffffffffffffffffffffffffffffffffff16847f2f8788117e7eff1d82e926ec794901d17c78024a50270940304540a733656f0d60405160405180910390a4600190506102f4565b600090505b92915050565b600080600084815260200190815260200160002060000160008373ffffffffffffffffffffffffffffffffffffffff1673ffffffffffffffffffffffffffffffffffffffff16815260200190815260200160002060009054906101000a900460ff16905092915050565b600033905090565b600080fd5b600073ffffffffffffffffffffffffffffffffffffffff82169050919050565b600061039c82610371565b9050919050565b6103ac81610391565b81146103b757600080fd5b50565b6000815190506103c9816103a3565b92915050565b6000806000606084860312156103e8576103e761036c565b5b60006103f6868287016103ba565b9350506020610407868287016103ba565b9250506040610418868287016103ba565b9150509250925092565b600082825260208201905092915050565b7f4d61726b6574706c6163653a207a65726f206164647200000000000000000000600082015250565b6000610469601683610422565b915061047482610433565b602082019050919050565b600060208201905081810360008301526104988161045c565b9050919050565b60805160a05160c0516133df61052260003960008181610c1a0152818161106201528181611747015281816119040152611d310152600081816109ef01528181611666015261170b01526000818161048d0152818161052e01528181610ccc01528181611205015281816112a6015281816114a2015261156701526133df6000f3fe608060405234801561001057600080fd5b50600436106101375760003560e01c806391d14854116100b8578063d8f6d5961161007c578063d8f6d59614610345578063e2fdcc171461037e578063e34057971461039c578063efef39a1146103ba578063f8dac8d3146103d6578063fd84cb97146103f257610137565b806391d1485414610284578063a217fddf146102b4578063b5f522f7146102d2578063cebb6c551461030b578063d547741f1461032957610137565b8063305a67a8116100ff578063305a67a81461020657806336568abe146102225780633706c0411461023e57806373a7d93e1461024857806390d6b45f1461026657610137565b806301ffc9a71461013c57806324780c561461016c578063248a9ca31461019c5780632f2ff15d146101cc5780632f48ab7d146101e8575b600080fd5b6101566004803603810190610151919061211e565b61040e565b6040516101639190612166565b60405180910390f35b61018660048036038101906101819190612227565b610488565b6040516101939190612289565b60405180910390f35b6101b660048036038101906101b191906122da565b6109ac565b6040516101c39190612316565b60405180910390f35b6101e660048036038101906101e1919061235d565b6109cb565b005b6101f06109ed565b6040516101fd91906123fc565b60405180910390f35b610220600480360381019061021b9190612417565b610a11565b005b61023c6004803603810190610237919061235d565b610b90565b005b610246610c0b565b005b610250610ca6565b60405161025d9190612316565b60405180910390f35b61026e610cca565b60405161027b9190612465565b60405180910390f35b61029e6004803603810190610299919061235d565b610cee565b6040516102ab9190612166565b60405180910390f35b6102bc610d58565b6040516102c99190612316565b60405180910390f35b6102ec60048036038101906102e79190612417565b610d5f565b6040516103029a99989796959493929190612596565b60405180910390f35b610313610ea8565b6040516103209190612316565b60405180910390f35b610343600480360381019061033e919061235d565b610ecc565b005b61035f600480360381019061035a9190612417565b610eee565b6040516103759a99989796959493929190612596565b60405180910390f35b610386611060565b604051610393919061265a565b60405180910390f35b6103a4611084565b6040516103b19190612733565b60405180910390f35b6103d460048036038101906103cf9190612417565b611202565b005b6103f060048036038101906103eb91906127ba565b611a3f565b005b61040c60048036038101906104079190612417565b611be1565b005b60007f7965db0b000000000000000000000000000000000000000000000000000000007bffffffffffffffffffffffffffffffffffffffffffffffffffffffff1916827bffffffffffffffffffffffffffffffffffffffffffffffffffffffff19161480610481575061048082611e02565b5b9050919050565b6000337f000000000000000000000000000000000000000000000000000000000000000073ffffffffffffffffffffffffffffffffffffffff1663ace417e0826040518263ffffffff1660e01b81526004016104e4919061281a565b602060405180830381865afa158015610501573d6000803e3d6000fd5b505050506040513d601f19601f820116820180604052508101906105259190612861565b80156105c857507f000000000000000000000000000000000000000000000000000000000000000073ffffffffffffffffffffffffffffffffffffffff1663b4a77b0e826040518263ffffffff1660e01b8152600401610585919061281a565b602060405180830381865afa1580156105a2573d6000803e3d6000fd5b505050506040513d601f19601f820116820180604052508101906105c69190612861565b155b610607576040517f08c379a00000000000000000000000000000000000000000000000000000000081526004016105fe906128da565b60405180910390fd5b6000831161064a576040517f08c379a000000000000000000000000000000000000000000000000000000000815260040161064190612946565b60405180910390fd5b8473ffffffffffffffffffffffffffffffffffffffff166323b872dd3330876040518463ffffffff1660e01b815260040161068793929190612966565b6020604051808303816000875af11580156106a6573d6000803e3d6000fd5b505050506040513d601f19601f820116820180604052508101906106ca9190612861565b610709576040517f08c379a000000000000000000000000000000000000000000000000000000000815260040161070090612a0f565b60405180910390fd5b6001600081548092919061071c90612a5e565b91905055506040518061014001604052808673ffffffffffffffffffffffffffffffffffffffff1681526020018581526020013373ffffffffffffffffffffffffffffffffffffffff168152602001600073ffffffffffffffffffffffffffffffffffffffff1681526020018481526020014281526020016000815260200160008152602001604051806020016040528060008152508152602001600160068111156107cb576107ca61251f565b5b81525060026000600154815260200190815260200160002060008201518160000160006101000a81548173ffffffffffffffffffffffffffffffffffffffff021916908373ffffffffffffffffffffffffffffffffffffffff1602179055506020820151816001015560408201518160020160006101000a81548173ffffffffffffffffffffffffffffffffffffffff021916908373ffffffffffffffffffffffffffffffffffffffff16021790555060608201518160030160006101000a81548173ffffffffffffffffffffffffffffffffffffffff021916908373ffffffffffffffffffffffffffffffffffffffff1602179055506080820151816004015560a0820151816005015560c0820151816006015560e082015181600701556101008201518160080190816109009190612cd7565b506101208201518160090160006101000a81548160ff0219169083600681111561092d5761092c61251f565b5b02179055509050503373ffffffffffffffffffffffffffffffffffffffff168573ffffffffffffffffffffffffffffffffffffffff166001547f57412d7f8ab9f09c8f517e3e9f6e4819b7d74a97e65ce95ad4605ef5172fcbad8642604051610997929190612da9565b60405180910390a46001549150509392505050565b6000806000838152602001908152602001600020600101549050919050565b6109d4826109ac565b6109dd81611e6c565b6109e78383611e80565b50505050565b7f000000000000000000000000000000000000000000000000000000000000000081565b600060026000838152602001908152602001600020905060016006811115610a3c57610a3b61251f565b5b8160090160009054906101000a900460ff166006811115610a6057610a5f61251f565b5b14610aa0576040517f08c379a0000000000000000000000000000000000000000000000000000000008152600401610a9790612e1e565b60405180910390fd5b8060020160009054906101000a900473ffffffffffffffffffffffffffffffffffffffff1673ffffffffffffffffffffffffffffffffffffffff163373ffffffffffffffffffffffffffffffffffffffff1614610b32576040517f08c379a0000000000000000000000000000000000000000000000000000000008152600401610b2990612e8a565b60405180910390fd5b60068160090160006101000a81548160ff02191690836006811115610b5a57610b5961251f565b5b0217905550817fc41d93b8bfbf9fd7cf5bfe271fd649ab6a6fec0ea101c23b82a2a28eca2533a960405160405180910390a25050565b610b98611f71565b73ffffffffffffffffffffffffffffffffffffffff168173ffffffffffffffffffffffffffffffffffffffff1614610bfc576040517f6697b23200000000000000000000000000000000000000000000000000000000815260040160405180910390fd5b610c068282611f79565b505050565b6000801b610c1881611e6c565b7f000000000000000000000000000000000000000000000000000000000000000073ffffffffffffffffffffffffffffffffffffffff166373ad6c2d306040518263ffffffff1660e01b8152600401610c71919061281a565b600060405180830381600087803b158015610c8b57600080fd5b505af1158015610c9f573d6000803e3d6000fd5b5050505050565b7f6f35daacd116f0f629c42d5459fd6842d505964e6828899d889573dc5bc51cf881565b7f000000000000000000000000000000000000000000000000000000000000000081565b600080600084815260200190815260200160002060000160008373ffffffffffffffffffffffffffffffffffffffff1673ffffffffffffffffffffffffffffffffffffffff16815260200190815260200160002060009054906101000a900460ff16905092915050565b6000801b81565b60026020528060005260406000206000915090508060000160009054906101000a900473ffffffffffffffffffffffffffffffffffffffff16908060010154908060020160009054906101000a900473ffffffffffffffffffffffffffffffffffffffff16908060030160009054906101000a900473ffffffffffffffffffffffffffffffffffffffff1690806004015490806005015490806006015490806007015490806008018054610e1290612b04565b80601f0160208091040260200160405190810160405280929190818152602001828054610e3e90612b04565b8015610e8b5780601f10610e6057610100808354040283529160200191610e8b565b820191906000526020600020905b815481529060010190602001808311610e6e57829003601f168201915b5050505050908060090160009054906101000a900460ff1690508a565b7f03a05e98ec2ea6e0cec1e1aac227f4f78a1c66794d89a03d375e15a59b3b14b981565b610ed5826109ac565b610ede81611e6c565b610ee88383611f79565b50505050565b6000806000806000806000806060600080600260008d815260200190815260200160002090508060000160009054906101000a900473ffffffffffffffffffffffffffffffffffffffff1681600101548260020160009054906101000a900473ffffffffffffffffffffffffffffffffffffffff168360030160009054906101000a900473ffffffffffffffffffffffffffffffffffffffff168460040154856005015486600601548760070154886008018960090160009054906101000a900460ff16818054610fbe90612b04565b80601f0160208091040260200160405190810160405280929190818152602001828054610fea90612b04565b80156110375780601f1061100c57610100808354040283529160200191611037565b820191906000526020600020905b81548152906001019060200180831161101a57829003601f168201915b505050505091509a509a509a509a509a509a509a509a509a509a50509193959799509193959799565b7f000000000000000000000000000000000000000000000000000000000000000081565b6060600080600190505b600154811161110857600160068111156110ab576110aa61251f565b5b6002600083815260200190815260200160002060090160009054906101000a900460ff1660068111156110e1576110e061251f565b5b036110f55781806110f190612a5e565b9250505b808061110090612a5e565b91505061108e565b5060008167ffffffffffffffff81111561112557611124612aa6565b5b6040519080825280602002602001820160405280156111535781602001602082028036833780820191505090505b509050600080600190505b60015481116111f8576001600681111561117b5761117a61251f565b5b6002600083815260200190815260200160002060090160009054906101000a900460ff1660068111156111b1576111b061251f565b5b036111e557808383815181106111ca576111c9612eaa565b5b60200260200101818152505081806111e190612a5e565b9250505b80806111f090612a5e565b91505061115e565b5081935050505090565b337f000000000000000000000000000000000000000000000000000000000000000073ffffffffffffffffffffffffffffffffffffffff1663ace417e0826040518263ffffffff1660e01b815260040161125c919061281a565b602060405180830381865afa158015611279573d6000803e3d6000fd5b505050506040513d601f19601f8201168201806040525081019061129d9190612861565b801561134057507f000000000000000000000000000000000000000000000000000000000000000073ffffffffffffffffffffffffffffffffffffffff1663b4a77b0e826040518263ffffffff1660e01b81526004016112fd919061281a565b602060405180830381865afa15801561131a573d6000803e3d6000fd5b505050506040513d601f19601f8201168201806040525081019061133e9190612861565b155b61137f576040517f08c379a0000000000000000000000000000000000000000000000000000000008152600401611376906128da565b60405180910390fd5b6000600260008481526020019081526020016000209050600160068111156113aa576113a961251f565b5b8160090160009054906101000a900460ff1660068111156113ce576113cd61251f565b5b1461140e576040517f08c379a000000000000000000000000000000000000000000000000000000000815260040161140590612f25565b60405180910390fd5b8060020160009054906101000a900473ffffffffffffffffffffffffffffffffffffffff1673ffffffffffffffffffffffffffffffffffffffff163373ffffffffffffffffffffffffffffffffffffffff16036114a0576040517f08c379a000000000000000000000000000000000000000000000000000000000815260040161149790612fb7565b60405180910390fd5b7f000000000000000000000000000000000000000000000000000000000000000073ffffffffffffffffffffffffffffffffffffffff1663ace417e08260020160009054906101000a900473ffffffffffffffffffffffffffffffffffffffff166040518263ffffffff1660e01b815260040161151d919061281a565b602060405180830381865afa15801561153a573d6000803e3d6000fd5b505050506040513d601f19601f8201168201806040525081019061155e9190612861565b801561162557507f000000000000000000000000000000000000000000000000000000000000000073ffffffffffffffffffffffffffffffffffffffff1663b4a77b0e8260020160009054906101000a900473ffffffffffffffffffffffffffffffffffffffff166040518263ffffffff1660e01b81526004016115e2919061281a565b602060405180830381865afa1580156115ff573d6000803e3d6000fd5b505050506040513d601f19601f820116820180604052508101906116239190612861565b155b611664576040517f08c379a000000000000000000000000000000000000000000000000000000000815260040161165b90613023565b60405180910390fd5b7f000000000000000000000000000000000000000000000000000000000000000073ffffffffffffffffffffffffffffffffffffffff166323b872dd333084600401546040518463ffffffff1660e01b81526004016116c593929190612966565b6020604051808303816000875af11580156116e4573d6000803e3d6000fd5b505050506040513d601f19601f820116820180604052508101906117089190612861565b507f000000000000000000000000000000000000000000000000000000000000000073ffffffffffffffffffffffffffffffffffffffff1663a9059cbb7f000000000000000000000000000000000000000000000000000000000000000083600401546040518363ffffffff1660e01b8152600401611788929190613043565b6020604051808303816000875af11580156117a7573d6000803e3d6000fd5b505050506040513d601f19601f820116820180604052508101906117cb9190612861565b508060000160009054906101000a900473ffffffffffffffffffffffffffffffffffffffff1673ffffffffffffffffffffffffffffffffffffffff1663a9059cbb3383600101546040518363ffffffff1660e01b815260040161182f929190613043565b6020604051808303816000875af115801561184e573d6000803e3d6000fd5b505050506040513d601f19601f820116820180604052508101906118729190612861565b50338160030160006101000a81548173ffffffffffffffffffffffffffffffffffffffff021916908373ffffffffffffffffffffffffffffffffffffffff16021790555042816006018190555061012c426118cd919061306c565b816007018190555060028160090160006101000a81548160ff021916908360068111156118fd576118fc61251f565b5b02179055507f000000000000000000000000000000000000000000000000000000000000000073ffffffffffffffffffffffffffffffffffffffff166317319ef6848360000160009054906101000a900473ffffffffffffffffffffffffffffffffffffffff16338560020160009054906101000a900473ffffffffffffffffffffffffffffffffffffffff16866004015487600701546040518763ffffffff1660e01b81526004016119b5969594939291906130a0565b600060405180830381600087803b1580156119cf57600080fd5b505af11580156119e3573d6000803e3d6000fd5b505050503373ffffffffffffffffffffffffffffffffffffffff16837ffd51b2c9f55c42d2b72ac683526519563be02fc0107f034ff430c05185ff1b668360040154604051611a329190612289565b60405180910390a3505050565b600060026000858152602001908152602001600020905060026006811115611a6a57611a6961251f565b5b8160090160009054906101000a900460ff166006811115611a8e57611a8d61251f565b5b14611ace576040517f08c379a0000000000000000000000000000000000000000000000000000000008152600401611ac59061314d565b60405180910390fd5b8060020160009054906101000a900473ffffffffffffffffffffffffffffffffffffffff1673ffffffffffffffffffffffffffffffffffffffff163373ffffffffffffffffffffffffffffffffffffffff1614611b60576040517f08c379a0000000000000000000000000000000000000000000000000000000008152600401611b5790612e8a565b60405180910390fd5b60038160090160006101000a81548160ff02191690836006811115611b8857611b8761251f565b5b02179055508282826008019182611ba0929190613178565b50837ff02a7a38c1a4b3014df826421db3888cfbf1efa6d32ab1bcadae514639019de48484604051611bd3929190613284565b60405180910390a250505050565b600060026000838152602001908152602001600020905060036006811115611c0c57611c0b61251f565b5b8160090160009054906101000a900460ff166006811115611c3057611c2f61251f565b5b14611c70576040517f08c379a0000000000000000000000000000000000000000000000000000000008152600401611c67906132f4565b60405180910390fd5b8060030160009054906101000a900473ffffffffffffffffffffffffffffffffffffffff1673ffffffffffffffffffffffffffffffffffffffff163373ffffffffffffffffffffffffffffffffffffffff1614611d02576040517f08c379a0000000000000000000000000000000000000000000000000000000008152600401611cf990613360565b60405180910390fd5b60048160090160006101000a81548160ff02191690836006811115611d2a57611d2961251f565b5b02179055507f000000000000000000000000000000000000000000000000000000000000000073ffffffffffffffffffffffffffffffffffffffff166333e23311836040518263ffffffff1660e01b8152600401611d889190612289565b600060405180830381600087803b158015611da257600080fd5b505af1158015611db6573d6000803e3d6000fd5b505050503373ffffffffffffffffffffffffffffffffffffffff16827f64a783c6150854ae756454311c7625a965c757996ba8cc1a8c6205380f33725060405160405180910390a35050565b60007f01ffc9a7000000000000000000000000000000000000000000000000000000007bffffffffffffffffffffffffffffffffffffffffffffffffffffffff1916827bffffffffffffffffffffffffffffffffffffffffffffffffffffffff1916149050919050565b611e7d81611e78611f71565b61206b565b50565b6000611e8c8383610cee565b611f6657600160008085815260200190815260200160002060000160008473ffffffffffffffffffffffffffffffffffffffff1673ffffffffffffffffffffffffffffffffffffffff16815260200190815260200160002060006101000a81548160ff021916908315150217905550611f03611f71565b73ffffffffffffffffffffffffffffffffffffffff168273ffffffffffffffffffffffffffffffffffffffff16847f2f8788117e7eff1d82e926ec794901d17c78024a50270940304540a733656f0d60405160405180910390a460019050611f6b565b600090505b92915050565b600033905090565b6000611f858383610cee565b1561206057600080600085815260200190815260200160002060000160008473ffffffffffffffffffffffffffffffffffffffff1673ffffffffffffffffffffffffffffffffffffffff16815260200190815260200160002060006101000a81548160ff021916908315150217905550611ffd611f71565b73ffffffffffffffffffffffffffffffffffffffff168273ffffffffffffffffffffffffffffffffffffffff16847ff6391f5c32d9c69d2a47ea670b442974b53935d1edc7fd64eb21e047a839171b60405160405180910390a460019050612065565b600090505b92915050565b6120758282610cee565b6120b85780826040517fe2517d3f0000000000000000000000000000000000000000000000000000000081526004016120af929190613380565b60405180910390fd5b5050565b600080fd5b600080fd5b60007fffffffff0000000000000000000000000000000000000000000000000000000082169050919050565b6120fb816120c6565b811461210657600080fd5b50565b600081359050612118816120f2565b92915050565b600060208284031215612134576121336120bc565b5b600061214284828501612109565b91505092915050565b60008115159050919050565b6121608161214b565b82525050565b600060208201905061217b6000830184612157565b92915050565b600073ffffffffffffffffffffffffffffffffffffffff82169050919050565b60006121ac82612181565b9050919050565b60006121be826121a1565b9050919050565b6121ce816121b3565b81146121d957600080fd5b50565b6000813590506121eb816121c5565b92915050565b6000819050919050565b612204816121f1565b811461220f57600080fd5b50565b600081359050612221816121fb565b92915050565b6000806000606084860312156122405761223f6120bc565b5b600061224e868287016121dc565b935050602061225f86828701612212565b925050604061227086828701612212565b9150509250925092565b612283816121f1565b82525050565b600060208201905061229e600083018461227a565b92915050565b6000819050919050565b6122b7816122a4565b81146122c257600080fd5b50565b6000813590506122d4816122ae565b92915050565b6000602082840312156122f0576122ef6120bc565b5b60006122fe848285016122c5565b91505092915050565b612310816122a4565b82525050565b600060208201905061232b6000830184612307565b92915050565b61233a816121a1565b811461234557600080fd5b50565b60008135905061235781612331565b92915050565b60008060408385031215612374576123736120bc565b5b6000612382858286016122c5565b925050602061239385828601612348565b9150509250929050565b6000819050919050565b60006123c26123bd6123b884612181565b61239d565b612181565b9050919050565b60006123d4826123a7565b9050919050565b60006123e6826123c9565b9050919050565b6123f6816123db565b82525050565b600060208201905061241160008301846123ed565b92915050565b60006020828403121561242d5761242c6120bc565b5b600061243b84828501612212565b91505092915050565b600061244f826123c9565b9050919050565b61245f81612444565b82525050565b600060208201905061247a6000830184612456565b92915050565b612489816121a1565b82525050565b600081519050919050565b600082825260208201905092915050565b60005b838110156124c95780820151818401526020810190506124ae565b60008484015250505050565b6000601f19601f8301169050919050565b60006124f18261248f565b6124fb818561249a565b935061250b8185602086016124ab565b612514816124d5565b840191505092915050565b7f4e487b7100000000000000000000000000000000000000000000000000000000600052602160045260246000fd5b6007811061255f5761255e61251f565b5b50565b60008190506125708261254e565b919050565b600061258082612562565b9050919050565b61259081612575565b82525050565b6000610140820190506125ac600083018d6123ed565b6125b9602083018c61227a565b6125c6604083018b612480565b6125d3606083018a612480565b6125e0608083018961227a565b6125ed60a083018861227a565b6125fa60c083018761227a565b61260760e083018661227a565b81810361010083015261261a81856124e6565b905061262a610120830184612587565b9b9a5050505050505050505050565b6000612644826123c9565b9050919050565b61265481612639565b82525050565b600060208201905061266f600083018461264b565b92915050565b600081519050919050565b600082825260208201905092915050565b6000819050602082019050919050565b6126aa816121f1565b82525050565b60006126bc83836126a1565b60208301905092915050565b6000602082019050919050565b60006126e082612675565b6126ea8185612680565b93506126f583612691565b8060005b8381101561272657815161270d88826126b0565b9750612718836126c8565b9250506001810190506126f9565b5085935050505092915050565b6000602082019050818103600083015261274d81846126d5565b905092915050565b600080fd5b600080fd5b600080fd5b60008083601f84011261277a57612779612755565b5b8235905067ffffffffffffffff8111156127975761279661275a565b5b6020830191508360018202830111156127b3576127b261275f565b5b9250929050565b6000806000604084860312156127d3576127d26120bc565b5b60006127e186828701612212565b935050602084013567ffffffffffffffff811115612802576128016120c1565b5b61280e86828701612764565b92509250509250925092565b600060208201905061282f6000830184612480565b92915050565b61283e8161214b565b811461284957600080fd5b50565b60008151905061285b81612835565b92915050565b600060208284031215612877576128766120bc565b5b60006128858482850161284c565b91505092915050565b7f4d61726b6574706c6163653a2075736572206e6f742076657269666965640000600082015250565b60006128c4601e8361249a565b91506128cf8261288e565b602082019050919050565b600060208201905081810360008301526128f3816128b7565b9050919050565b7f4d61726b6574706c6163653a2070726963652030000000000000000000000000600082015250565b600061293060148361249a565b915061293b826128fa565b602082019050919050565b6000602082019050818103600083015261295f81612923565b9050919050565b600060608201905061297b6000830186612480565b6129886020830185612480565b612995604083018461227a565b949350505050565b7f4d61726b6574706c6163653a20525741546f6b656e207472616e73666572467260008201527f6f6d206661696c65640000000000000000000000000000000000000000000000602082015250565b60006129f960298361249a565b9150612a048261299d565b604082019050919050565b60006020820190508181036000830152612a28816129ec565b9050919050565b7f4e487b7100000000000000000000000000000000000000000000000000000000600052601160045260246000fd5b6000612a69826121f1565b91507fffffffffffffffffffffffffffffffffffffffffffffffffffffffffffffffff8203612a9b57612a9a612a2f565b5b600182019050919050565b7f4e487b7100000000000000000000000000000000000000000000000000000000600052604160045260246000fd5b7f4e487b7100000000000000000000000000000000000000000000000000000000600052602260045260246000fd5b60006002820490506001821680612b1c57607f821691505b602082108103612b2f57612b2e612ad5565b5b50919050565b60008190508160005260206000209050919050565b60006020601f8301049050919050565b600082821b905092915050565b600060088302612b977fffffffffffffffffffffffffffffffffffffffffffffffffffffffffffffffff82612b5a565b612ba18683612b5a565b95508019841693508086168417925050509392505050565b6000612bd4612bcf612bca846121f1565b61239d565b6121f1565b9050919050565b6000819050919050565b612bee83612bb9565b612c02612bfa82612bdb565b848454612b67565b825550505050565b600090565b612c17612c0a565b612c22818484612be5565b505050565b5b81811015612c4657612c3b600082612c0f565b600181019050612c28565b5050565b601f821115612c8b57612c5c81612b35565b612c6584612b4a565b81016020851015612c74578190505b612c88612c8085612b4a565b830182612c27565b50505b505050565b600082821c905092915050565b6000612cae60001984600802612c90565b1980831691505092915050565b6000612cc78383612c9d565b9150826002028217905092915050565b612ce08261248f565b67ffffffffffffffff811115612cf957612cf8612aa6565b5b612d038254612b04565b612d0e828285612c4a565b600060209050601f831160018114612d415760008415612d2f578287015190505b612d398582612cbb565b865550612da1565b601f198416612d4f86612b35565b60005b82811015612d7757848901518255600182019150602085019450602081019050612d52565b86831015612d945784890151612d90601f891682612c9d565b8355505b6001600288020188555050505b505050505050565b6000604082019050612dbe600083018561227a565b612dcb602083018461227a565b9392505050565b7f4d61726b6574706c6163653a2063616e6e6f742063616e63656c000000000000600082015250565b6000612e08601a8361249a565b9150612e1382612dd2565b602082019050919050565b60006020820190508181036000830152612e3781612dfb565b9050919050565b7f4d61726b6574706c6163653a206e6f742073656c6c6572000000000000000000600082015250565b6000612e7460178361249a565b9150612e7f82612e3e565b602082019050919050565b60006020820190508181036000830152612ea381612e67565b9050919050565b7f4e487b7100000000000000000000000000000000000000000000000000000000600052603260045260246000fd5b7f4d61726b6574706c6163653a206e6f74206c6973746564000000000000000000600082015250565b6000612f0f60178361249a565b9150612f1a82612ed9565b602082019050919050565b60006020820190508181036000830152612f3e81612f02565b9050919050565b7f4d61726b6574706c6163653a2073656c6c65722063616e6e6f7420627579206f60008201527f776e000000000000000000000000000000000000000000000000000000000000602082015250565b6000612fa160228361249a565b9150612fac82612f45565b604082019050919050565b60006020820190508181036000830152612fd081612f94565b9050919050565b7f4d61726b6574706c6163653a2073656c6c6572206e6f74207665726966696564600082015250565b600061300d60208361249a565b915061301882612fd7565b602082019050919050565b6000602082019050818103600083015261303c81613000565b9050919050565b60006040820190506130586000830185612480565b613065602083018461227a565b9392505050565b6000613077826121f1565b9150613082836121f1565b925082820190508082111561309a57613099612a2f565b5b92915050565b600060c0820190506130b5600083018961227a565b6130c260208301886123ed565b6130cf6040830187612480565b6130dc6060830186612480565b6130e9608083018561227a565b6130f660a083018461227a565b979650505050505050565b7f4d61726b6574706c6163653a206e6f7420707572636861736564000000000000600082015250565b6000613137601a8361249a565b915061314282613101565b602082019050919050565b600060208201905081810360008301526131668161312a565b9050919050565b600082905092915050565b613182838361316d565b67ffffffffffffffff81111561319b5761319a612aa6565b5b6131a58254612b04565b6131b0828285612c4a565b6000601f8311600181146131df57600084156131cd578287013590505b6131d78582612cbb565b86555061323f565b601f1984166131ed86612b35565b60005b82811015613215578489013582556001820191506020850194506020810190506131f0565b86831015613232578489013561322e601f891682612c9d565b8355505b6001600288020188555050505b50505050505050565b82818337600083830152505050565b6000613263838561249a565b9350613270838584613248565b613279836124d5565b840190509392505050565b6000602082019050818103600083015261329f818486613257565b90509392505050565b7f4d61726b6574706c6163653a2063616e6e6f7420636f6e6669726d0000000000600082015250565b60006132de601b8361249a565b91506132e9826132a8565b602082019050919050565b6000602082019050818103600083015261330d816132d1565b9050919050565b7f4d61726b6574706c6163653a206e6f7420627579657200000000000000000000600082015250565b600061334a60168361249a565b915061335582613314565b602082019050919050565b600060208201905081810360008301526133798161333d565b9050919050565b60006040820190506133956000830185612480565b6133a26020830184612307565b939250505056fea2646970667358221220ab7996740d9f65030597c05d3a0e853d55194c52d116a104643236b58fa958e964736f6c634300081a0033",
  "linkReferences": {},
  "deployedLinkReferences": {}
}